{
  "address": "0xf3E31d59Fc4ac3204F420aB906e5806Af26e7635",
  "abi": [
    {
      "inputs": [
        {
          "internalType": "string",
          "name": "_baseURIString",
          "type": "string"
        },
        {
          "internalType": "string",
          "name": "_placeholder",
          "type": "string"
        },
        {
          "internalType": "uint256",
          "name": "maxBatchSize_",
          "type": "uint256"
        },
        {
          "internalType": "uint256",
          "name": "collectionSize_",
          "type": "uint256"
        },
        {
          "internalType": "address",
          "name": "signerAddress",
          "type": "address"
        },
        {
          "internalType": "uint256",
          "name": "currentSaleAmount_",
          "type": "uint256"
        }
      ],
      "stateMutability": "nonpayable",
      "type": "constructor"
    },
    {
      "anonymous": false,
      "inputs": [
        {
          "indexed": true,
          "internalType": "address",
          "name": "owner",
          "type": "address"
        },
        {
          "indexed": true,
          "internalType": "address",
          "name": "approved",
          "type": "address"
        },
        {
          "indexed": true,
          "internalType": "uint256",
          "name": "tokenId",
          "type": "uint256"
        }
      ],
      "name": "Approval",
      "type": "event"
    },
    {
      "anonymous": false,
      "inputs": [
        {
          "indexed": true,
          "internalType": "address",
          "name": "owner",
          "type": "address"
        },
        {
          "indexed": true,
          "internalType": "address",
          "name": "operator",
          "type": "address"
        },
        {
          "indexed": false,
          "internalType": "bool",
          "name": "approved",
          "type": "bool"
        }
      ],
      "name": "ApprovalForAll",
      "type": "event"
    },
    {
      "anonymous": false,
      "inputs": [
        {
          "indexed": true,
          "internalType": "address",
          "name": "previousOwner",
          "type": "address"
        },
        {
          "indexed": true,
          "internalType": "address",
          "name": "newOwner",
          "type": "address"
        }
      ],
      "name": "OwnershipTransferred",
      "type": "event"
    },
    {
      "anonymous": false,
      "inputs": [
        {
          "indexed": true,
          "internalType": "address",
          "name": "from",
          "type": "address"
        },
        {
          "indexed": true,
          "internalType": "address",
          "name": "to",
          "type": "address"
        },
        {
          "indexed": true,
          "internalType": "uint256",
          "name": "tokenId",
          "type": "uint256"
        }
      ],
      "name": "Transfer",
      "type": "event"
    },
    {
      "inputs": [
        {
          "internalType": "address",
          "name": "to",
          "type": "address"
        },
        {
          "internalType": "uint256",
          "name": "tokenId",
          "type": "uint256"
        }
      ],
      "name": "approve",
      "outputs": [],
      "stateMutability": "nonpayable",
      "type": "function"
    },
    {
      "inputs": [
        {
          "internalType": "address",
          "name": "owner",
          "type": "address"
        }
      ],
      "name": "balanceOf",
      "outputs": [
        {
          "internalType": "uint256",
          "name": "",
          "type": "uint256"
        }
      ],
      "stateMutability": "view",
      "type": "function"
    },
    {
      "inputs": [],
      "name": "currentSaleAmount",
      "outputs": [
        {
          "internalType": "uint256",
          "name": "",
          "type": "uint256"
        }
      ],
      "stateMutability": "view",
      "type": "function"
    },
    {
      "inputs": [],
      "name": "currentSalePhase",
      "outputs": [
        {
          "internalType": "enum DireLej.SalePhase",
          "name": "",
          "type": "uint8"
        }
      ],
      "stateMutability": "view",
      "type": "function"
    },
    {
      "inputs": [
        {
          "internalType": "uint256",
          "name": "quantity",
          "type": "uint256"
        }
      ],
      "name": "devMint",
      "outputs": [],
      "stateMutability": "nonpayable",
      "type": "function"
    },
    {
      "inputs": [
        {
          "internalType": "uint256",
          "name": "tokenId",
          "type": "uint256"
        }
      ],
      "name": "getApproved",
      "outputs": [
        {
          "internalType": "address",
          "name": "",
          "type": "address"
        }
      ],
      "stateMutability": "view",
      "type": "function"
    },
    {
      "inputs": [
        {
          "internalType": "uint256",
          "name": "tokenId",
          "type": "uint256"
        }
      ],
      "name": "getOwnershipData",
      "outputs": [
        {
          "components": [
            {
              "internalType": "address",
              "name": "addr",
              "type": "address"
            },
            {
              "internalType": "uint64",
              "name": "startTimestamp",
              "type": "uint64"
            }
          ],
          "internalType": "struct ERC721A.TokenOwnership",
          "name": "",
          "type": "tuple"
        }
      ],
      "stateMutability": "view",
      "type": "function"
    },
    {
      "inputs": [
        {
          "internalType": "address",
          "name": "owner",
          "type": "address"
        },
        {
          "internalType": "address",
          "name": "operator",
          "type": "address"
        }
      ],
      "name": "isApprovedForAll",
      "outputs": [
        {
          "internalType": "bool",
          "name": "",
          "type": "bool"
        }
      ],
      "stateMutability": "view",
      "type": "function"
    },
    {
      "inputs": [],
      "name": "maxAmountPerWallet",
      "outputs": [
        {
          "internalType": "uint256",
          "name": "",
          "type": "uint256"
        }
      ],
      "stateMutability": "view",
      "type": "function"
    },
    {
      "inputs": [],
      "name": "name",
      "outputs": [
        {
          "internalType": "string",
          "name": "",
          "type": "string"
        }
      ],
      "stateMutability": "view",
      "type": "function"
    },
    {
      "inputs": [],
      "name": "nextOwnerToExplicitlySet",
      "outputs": [
        {
          "internalType": "uint256",
          "name": "",
          "type": "uint256"
        }
      ],
      "stateMutability": "view",
      "type": "function"
    },
    {
      "inputs": [
        {
          "internalType": "address",
          "name": "owner",
          "type": "address"
        }
      ],
      "name": "numberMinted",
      "outputs": [
        {
          "internalType": "uint256",
          "name": "",
          "type": "uint256"
        }
      ],
      "stateMutability": "view",
      "type": "function"
    },
    {
      "inputs": [],
      "name": "owner",
      "outputs": [
        {
          "internalType": "address",
          "name": "",
          "type": "address"
        }
      ],
      "stateMutability": "view",
      "type": "function"
    },
    {
      "inputs": [
        {
          "internalType": "uint256",
          "name": "tokenId",
          "type": "uint256"
        }
      ],
      "name": "ownerOf",
      "outputs": [
        {
          "internalType": "address",
          "name": "",
          "type": "address"
        }
      ],
      "stateMutability": "view",
      "type": "function"
    },
    {
      "inputs": [
        {
          "internalType": "uint256",
          "name": "quantity",
          "type": "uint256"
        },
        {
          "internalType": "bytes",
          "name": "signature",
          "type": "bytes"
        }
      ],
      "name": "preSaleMint",
      "outputs": [],
      "stateMutability": "payable",
      "type": "function"
    },
    {
      "inputs": [],
      "name": "presalePrice",
      "outputs": [
        {
          "internalType": "uint256",
          "name": "",
          "type": "uint256"
        }
      ],
      "stateMutability": "view",
      "type": "function"
    },
    {
      "inputs": [
        {
          "internalType": "uint256",
          "name": "quantity",
          "type": "uint256"
        }
      ],
      "name": "publicSaleMint",
      "outputs": [],
      "stateMutability": "payable",
      "type": "function"
    },
    {
      "inputs": [],
      "name": "publicSalePrice",
      "outputs": [
        {
          "internalType": "uint256",
          "name": "",
          "type": "uint256"
        }
      ],
      "stateMutability": "view",
      "type": "function"
    },
    {
      "inputs": [],
      "name": "renounceOwnership",
      "outputs": [],
      "stateMutability": "nonpayable",
      "type": "function"
    },
    {
      "inputs": [],
      "name": "reveal",
      "outputs": [
        {
          "internalType": "bool",
          "name": "",
          "type": "bool"
        }
      ],
      "stateMutability": "view",
      "type": "function"
    },
    {
      "inputs": [
        {
          "internalType": "address",
          "name": "from",
          "type": "address"
        },
        {
          "internalType": "address",
          "name": "to",
          "type": "address"
        },
        {
          "internalType": "uint256",
          "name": "tokenId",
          "type": "uint256"
        }
      ],
      "name": "safeTransferFrom",
      "outputs": [],
      "stateMutability": "nonpayable",
      "type": "function"
    },
    {
      "inputs": [
        {
          "internalType": "address",
          "name": "from",
          "type": "address"
        },
        {
          "internalType": "address",
          "name": "to",
          "type": "address"
        },
        {
          "internalType": "uint256",
          "name": "tokenId",
          "type": "uint256"
        },
        {
          "internalType": "bytes",
          "name": "_data",
          "type": "bytes"
        }
      ],
      "name": "safeTransferFrom",
      "outputs": [],
      "stateMutability": "nonpayable",
      "type": "function"
    },
    {
      "inputs": [
        {
          "internalType": "address",
          "name": "operator",
          "type": "address"
        },
        {
          "internalType": "bool",
          "name": "approved",
          "type": "bool"
        }
      ],
      "name": "setApprovalForAll",
      "outputs": [],
      "stateMutability": "nonpayable",
      "type": "function"
    },
    {
      "inputs": [
        {
          "internalType": "string",
          "name": "baseURI",
          "type": "string"
        }
      ],
      "name": "setBaseURI",
      "outputs": [],
      "stateMutability": "nonpayable",
      "type": "function"
    },
    {
      "inputs": [
        {
          "internalType": "uint256",
          "name": "_currentSaleAmount",
          "type": "uint256"
        }
      ],
      "name": "setCurrentSaleAmount",
      "outputs": [],
      "stateMutability": "nonpayable",
      "type": "function"
    },
    {
      "inputs": [
        {
          "internalType": "string",
          "name": "_uri",
          "type": "string"
        }
      ],
      "name": "setPlaceHolderURI",
      "outputs": [],
      "stateMutability": "nonpayable",
      "type": "function"
    },
    {
      "inputs": [
        {
          "internalType": "address",
          "name": "signer",
          "type": "address"
        }
      ],
      "name": "setPreSaleSigner",
      "outputs": [],
      "stateMutability": "nonpayable",
      "type": "function"
    },
    {
      "inputs": [
        {
          "internalType": "uint256",
          "name": "_price",
          "type": "uint256"
        }
      ],
      "name": "setPresalePrice",
      "outputs": [],
      "stateMutability": "nonpayable",
      "type": "function"
    },
    {
      "inputs": [
        {
          "internalType": "uint256",
          "name": "_price",
          "type": "uint256"
        }
      ],
      "name": "setPublicSalePrice",
      "outputs": [],
      "stateMutability": "nonpayable",
      "type": "function"
    },
    {
      "inputs": [
        {
          "internalType": "bool",
          "name": "value",
          "type": "bool"
        }
      ],
      "name": "setReveal",
      "outputs": [],
      "stateMutability": "nonpayable",
      "type": "function"
    },
    {
      "inputs": [
        {
          "internalType": "enum DireLej.SalePhase",
          "name": "phase",
          "type": "uint8"
        }
      ],
      "name": "setSaleMode",
      "outputs": [],
      "stateMutability": "nonpayable",
      "type": "function"
    },
    {
      "inputs": [
        {
          "internalType": "uint256",
          "name": "_limit",
          "type": "uint256"
        }
      ],
      "name": "setWalletLimit",
      "outputs": [],
      "stateMutability": "nonpayable",
      "type": "function"
    },
    {
      "inputs": [
        {
          "internalType": "bytes4",
          "name": "interfaceId",
          "type": "bytes4"
        }
      ],
      "name": "supportsInterface",
      "outputs": [
        {
          "internalType": "bool",
          "name": "",
          "type": "bool"
        }
      ],
      "stateMutability": "view",
      "type": "function"
    },
    {
      "inputs": [],
      "name": "symbol",
      "outputs": [
        {
          "internalType": "string",
          "name": "",
          "type": "string"
        }
      ],
      "stateMutability": "view",
      "type": "function"
    },
    {
      "inputs": [
        {
          "internalType": "uint256",
          "name": "index",
          "type": "uint256"
        }
      ],
      "name": "tokenByIndex",
      "outputs": [
        {
          "internalType": "uint256",
          "name": "",
          "type": "uint256"
        }
      ],
      "stateMutability": "view",
      "type": "function"
    },
    {
      "inputs": [
        {
          "internalType": "address",
          "name": "owner",
          "type": "address"
        },
        {
          "internalType": "uint256",
          "name": "index",
          "type": "uint256"
        }
      ],
      "name": "tokenOfOwnerByIndex",
      "outputs": [
        {
          "internalType": "uint256",
          "name": "",
          "type": "uint256"
        }
      ],
      "stateMutability": "view",
      "type": "function"
    },
    {
      "inputs": [
        {
          "internalType": "uint256",
          "name": "tokenId",
          "type": "uint256"
        }
      ],
      "name": "tokenURI",
      "outputs": [
        {
          "internalType": "string",
          "name": "",
          "type": "string"
        }
      ],
      "stateMutability": "view",
      "type": "function"
    },
    {
      "inputs": [],
      "name": "totalSupply",
      "outputs": [
        {
          "internalType": "uint256",
          "name": "",
          "type": "uint256"
        }
      ],
      "stateMutability": "view",
      "type": "function"
    },
    {
      "inputs": [
        {
          "internalType": "address",
          "name": "from",
          "type": "address"
        },
        {
          "internalType": "address",
          "name": "to",
          "type": "address"
        },
        {
          "internalType": "uint256",
          "name": "tokenId",
          "type": "uint256"
        }
      ],
      "name": "transferFrom",
      "outputs": [],
      "stateMutability": "nonpayable",
      "type": "function"
    },
    {
      "inputs": [
        {
          "internalType": "address",
          "name": "newOwner",
          "type": "address"
        }
      ],
      "name": "transferOwnership",
      "outputs": [],
      "stateMutability": "nonpayable",
      "type": "function"
    },
    {
      "inputs": [
        {
          "internalType": "bytes",
          "name": "signature",
          "type": "bytes"
        }
      ],
      "name": "verifySigner",
      "outputs": [],
      "stateMutability": "view",
      "type": "function"
    },
    {
      "inputs": [],
      "name": "withdrawMoney",
      "outputs": [],
      "stateMutability": "nonpayable",
      "type": "function"
    }
  ],
  "transactionHash": "0x77ecb690f47d09561e6558fa7ce278029b82fd4794bcae7df3041d0a429fd110",
  "args": [
    "https://kanessanft.mypinata.cloud/ipfs/QmbEaPLaoYJzDYih3q15eMCeEdU5rCFRXsDsuM4Ki9N1DN/",
    "",
    5,
    3333,
    "0x5e6cCfBa0aB8Bf8BDEE5ABe9f6eE0BB2f274a609",
    500
  ],
  "numDeployments": 1,
  "solcInputHash": "cdb6fc48aa7ab48ed4de0cd239c5379b",
  "bytecode": "0x60c0604052600060018181556008919091556801a055690d9db80000600b5568015af1d78b58c40000600c556010805460ff1990811690921790556012805490911690553480156200005057600080fd5b50604051620036f6380380620036f6833981016040819052620000739162000471565b604051806040016040528060078152602001662234b932a632b560c91b815250604051806040016040528060048152602001632229262560e11b8152508585620000cc620000c6620002aa60201b60201c565b620002ae565b60008111620001395760405162461bcd60e51b815260206004820152602e60248201527f455243373231413a20636f6c6c656374696f6e206d757374206861766520612060448201526d6e6f6e7a65726f20737570706c7960901b60648201526084015b60405180910390fd5b600082116200019b5760405162461bcd60e51b815260206004820152602760248201527f455243373231413a206d61782062617463682073697a65206d757374206265206044820152666e6f6e7a65726f60c81b606482015260840162000130565b8351620001b0906002906020870190620002fe565b508251620001c6906003906020860190620002fe565b5060a091909152608052505060016009558551620001ec90600e906020890190620002fe565b5084516200020290600f906020880190620002fe565b50600a849055600d80546001600160a01b0319166001600160a01b038416179055828111156200029b5760405162461bcd60e51b815260206004820152603560248201527f43757272656e742053616c6520416d6f756e742073686f756c64206c6573732060448201527f7468616e20636f6c6c656374696f6e2073697a652e0000000000000000000000606482015260840162000130565b60115550620005589350505050565b3390565b600080546001600160a01b038381166001600160a01b0319831681178455604051919092169283917f8be0079c531659141344cd1fd0a4f28419497f9722a3daafe3b4186f6b6457e09190a35050565b8280546200030c906200051b565b90600052602060002090601f0160209004810192826200033057600085556200037b565b82601f106200034b57805160ff19168380011785556200037b565b828001600101855582156200037b579182015b828111156200037b5782518255916020019190600101906200035e565b50620003899291506200038d565b5090565b5b808211156200038957600081556001016200038e565b634e487b7160e01b600052604160045260246000fd5b600082601f830112620003cc57600080fd5b81516001600160401b0380821115620003e957620003e9620003a4565b604051601f8301601f19908116603f01168101908282118183101715620004145762000414620003a4565b816040528381526020925086838588010111156200043157600080fd5b600091505b8382101562000455578582018301518183018401529082019062000436565b83821115620004675760008385830101525b9695505050505050565b60008060008060008060c087890312156200048b57600080fd5b86516001600160401b0380821115620004a357600080fd5b620004b18a838b01620003ba565b97506020890151915080821115620004c857600080fd5b50620004d789828a01620003ba565b604089015160608a015160808b0151929850909650945090506001600160a01b03811681146200050657600080fd5b8092505060a087015190509295509295509295565b600181811c908216806200053057607f821691505b602082108114156200055257634e487b7160e01b600052602260045260246000fd5b50919050565b60805160a051613151620005a560003960008181610dc101528181610dec01528181610e7701528181610ea401528181611e9301528181611ebd01526126220152600050506131516000f3fe6080604052600436106102505760003560e01c806377a73a0811610139578063ac446002116100b6578063dc33e6811161007a578063dc33e681146106cb578063e985e9c5146106eb578063f1d5f51714610734578063f1eaceb414610754578063f2fde38b1461076a578063f53da97e1461078a57600080fd5b8063ac4460021461064d578063b3ab66b014610662578063b88d4fde14610675578063c87b56dd14610695578063d7224ba0146106b557600080fd5b80639b6860c8116100fd5780639b6860c8146105ca5780639f1c9b05146105e0578063a22cb46514610600578063a272284a14610620578063a475b5dd1461063357600080fd5b806377a73a081461050a578063791a25191461052a5780638da5cb5b1461054a5780639231ab2a1461056857806395d89b41146105b557600080fd5b80633549345e116101d25780634f6ccce7116101965780634f6ccce71461045557806355f804b3146104755780636352211e14610495578063689e1395146104b557806370a08231146104d5578063715018a6146104f557600080fd5b80633549345e146103bf57806336db7129146103df578063375a069a146103f557806342842e0e1461041557806345464a3e1461043557600080fd5b806318160ddd1161021957806318160ddd1461032a57806323b872dd1461033f578063278e25ed1461035f5780632a3f300c1461037f5780632f745c591461039f57600080fd5b80620e7fa81461025557806301ffc9a71461027e57806306fdde03146102ae578063081812fc146102d0578063095ea7b314610308575b600080fd5b34801561026157600080fd5b5061026b600c5481565b6040519081526020015b60405180910390f35b34801561028a57600080fd5b5061029e610299366004612a0b565b6107b1565b6040519015158152602001610275565b3480156102ba57600080fd5b506102c361081e565b6040516102759190612a80565b3480156102dc57600080fd5b506102f06102eb366004612a93565b6108b0565b6040516001600160a01b039091168152602001610275565b34801561031457600080fd5b50610328610323366004612ac8565b610940565b005b34801561033657600080fd5b5060015461026b565b34801561034b57600080fd5b5061032861035a366004612af2565b610a58565b34801561036b57600080fd5b5061032861037a366004612b6f565b610a63565b34801561038b57600080fd5b5061032861039a366004612bc0565b610b57565b3480156103ab57600080fd5b5061026b6103ba366004612ac8565b610b94565b3480156103cb57600080fd5b506103286103da366004612a93565b610d0c565b3480156103eb57600080fd5b5061026b600a5481565b34801561040157600080fd5b50610328610410366004612a93565b610d3b565b34801561042157600080fd5b50610328610430366004612af2565b610f01565b34801561044157600080fd5b50610328610450366004612a93565b610f1c565b34801561046157600080fd5b5061026b610470366004612a93565b610f4b565b34801561048157600080fd5b50610328610490366004612c66565b610fb4565b3480156104a157600080fd5b506102f06104b0366004612a93565b610ff5565b3480156104c157600080fd5b506103286104d0366004612cae565b611007565b3480156104e157600080fd5b5061026b6104f0366004612ccf565b6110c1565b34801561050157600080fd5b50610328611152565b34801561051657600080fd5b50610328610525366004612c66565b611188565b34801561053657600080fd5b50610328610545366004612a93565b6111c5565b34801561055657600080fd5b506000546001600160a01b03166102f0565b34801561057457600080fd5b50610588610583366004612a93565b6111f4565b6040805182516001600160a01b031681526020928301516001600160401b03169281019290925201610275565b3480156105c157600080fd5b506102c3611211565b3480156105d657600080fd5b5061026b600b5481565b3480156105ec57600080fd5b506103286105fb366004612ccf565b611220565b34801561060c57600080fd5b5061032861061b366004612cea565b61126c565b61032861062e366004612d1d565b611331565b34801561063f57600080fd5b5060105461029e9060ff1681565b34801561065957600080fd5b506103286114ea565b610328610670366004612a93565b6115cf565b34801561068157600080fd5b50610328610690366004612d68565b611776565b3480156106a157600080fd5b506102c36106b0366004612a93565b6117a9565b3480156106c157600080fd5b5061026b60085481565b3480156106d757600080fd5b5061026b6106e6366004612ccf565b61191c565b3480156106f757600080fd5b5061029e610706366004612de3565b6001600160a01b03918216600090815260076020908152604080832093909416825291909152205460ff1690565b34801561074057600080fd5b5061032861074f366004612a93565b611927565b34801561076057600080fd5b5061026b60115481565b34801561077657600080fd5b50610328610785366004612ccf565b611956565b34801561079657600080fd5b506012546107a49060ff1681565b6040516102759190612e23565b60006001600160e01b031982166380ac58cd60e01b14806107e257506001600160e01b03198216635b5e139f60e01b145b806107fd57506001600160e01b0319821663780e9d6360e01b145b8061081857506301ffc9a760e01b6001600160e01b03198316145b92915050565b60606002805461082d90612e4b565b80601f016020809104026020016040519081016040528092919081815260200182805461085990612e4b565b80156108a65780601f1061087b576101008083540402835291602001916108a6565b820191906000526020600020905b81548152906001019060200180831161088957829003601f168201915b5050505050905090565b60006108bd826001541190565b6109245760405162461bcd60e51b815260206004820152602d60248201527f455243373231413a20617070726f76656420717565727920666f72206e6f6e6560448201526c3c34b9ba32b73a103a37b5b2b760991b60648201526084015b60405180910390fd5b506000908152600660205260409020546001600160a01b031690565b600061094b82610ff5565b9050806001600160a01b0316836001600160a01b031614156109ba5760405162461bcd60e51b815260206004820152602260248201527f455243373231413a20617070726f76616c20746f2063757272656e74206f776e60448201526132b960f11b606482015260840161091b565b336001600160a01b03821614806109d657506109d68133610706565b610a485760405162461bcd60e51b815260206004820152603960248201527f455243373231413a20617070726f76652063616c6c6572206973206e6f74206f60448201527f776e6572206e6f7220617070726f76656420666f7220616c6c00000000000000606482015260840161091b565b610a538383836119f1565b505050565b610a53838383611a4d565b604080513360601b6bffffffffffffffffffffffff1916602080830191909152825160148184030181526034830184528051908201207f19457468657265756d205369676e6564204d6573736167653a0a3332000000006054840152607080840182905284518085039091018152609090930190935281519101206000610b208286868080601f016020809104026020016040519081016040528093929190818152602001838380828437600092019190915250611dd392505050565b90506001600160a01b03811615801590610b475750600d546001600160a01b038281169116145b610b5057600080fd5b5050505050565b6000546001600160a01b03163314610b815760405162461bcd60e51b815260040161091b90612e86565b6010805460ff1916911515919091179055565b6000610b9f836110c1565b8210610bf85760405162461bcd60e51b815260206004820152602260248201527f455243373231413a206f776e657220696e646578206f7574206f6620626f756e604482015261647360f01b606482015260840161091b565b6000610c0360015490565b905060008060005b83811015610cac576000818152600460209081526040918290208251808401909352546001600160a01b038116808452600160a01b9091046001600160401b03169183019190915215610c5d57805192505b876001600160a01b0316836001600160a01b03161415610c995786841415610c8b5750935061081892505050565b83610c9581612ed1565b9450505b5080610ca481612ed1565b915050610c0b565b5060405162461bcd60e51b815260206004820152602e60248201527f455243373231413a20756e61626c6520746f2067657420746f6b656e206f662060448201526d0deeedccae440c4f240d2dcc8caf60931b606482015260840161091b565b6000546001600160a01b03163314610d365760405162461bcd60e51b815260040161091b90612e86565b600c55565b6000546001600160a01b03163314610d655760405162461bcd60e51b815260040161091b90612e86565b60115481610d7260015490565b610d7c9190612eec565b1115610dbf5760405162461bcd60e51b815260206004820152601260248201527145786365656473204d617820537570706c7960701b604482015260640161091b565b7f0000000000000000000000000000000000000000000000000000000000000000811115610e7357610e117f000000000000000000000000000000000000000000000000000000000000000082612f1a565b15610e735760405162461bcd60e51b815260206004820152602c60248201527f63616e206f6e6c79206d696e742061206d756c7469706c65206f66207468652060448201526b6d6178426174636853697a6560a01b606482015260840161091b565b60007f00000000000000000000000000000000000000000000000000000000000000008211610ea25781610ec4565b7f00000000000000000000000000000000000000000000000000000000000000005b90506000610ed28284612f2e565b905060005b81811015610efb57610ee93384611df7565b80610ef381612ed1565b915050610ed7565b50505050565b610a5383838360405180602001604052806000815250611776565b6000546001600160a01b03163314610f465760405162461bcd60e51b815260040161091b90612e86565b601155565b6000610f5660015490565b8210610fb05760405162461bcd60e51b815260206004820152602360248201527f455243373231413a20676c6f62616c20696e646578206f7574206f6620626f756044820152626e647360e81b606482015260840161091b565b5090565b6000546001600160a01b03163314610fde5760405162461bcd60e51b815260040161091b90612e86565b8051610ff190600e906020840190612965565b5050565b600061100082611e11565b5192915050565b6000546001600160a01b031633146110315760405162461bcd60e51b815260040161091b90612e86565b80600281111561104357611043612e0d565b60125460ff16600281111561105a5761105a612e0d565b141561109a5760405162461bcd60e51b815260206004820152600f60248201526e20b63932b0b23c9030b1ba34bb329760891b604482015260640161091b565b6012805482919060ff191660018360028111156110b9576110b9612e0d565b021790555050565b60006001600160a01b03821661112d5760405162461bcd60e51b815260206004820152602b60248201527f455243373231413a2062616c616e636520717565727920666f7220746865207a60448201526a65726f206164647265737360a81b606482015260840161091b565b506001600160a01b03166000908152600560205260409020546001600160801b031690565b6000546001600160a01b0316331461117c5760405162461bcd60e51b815260040161091b90612e86565b6111866000611fba565b565b6000546001600160a01b031633146111b25760405162461bcd60e51b815260040161091b90612e86565b8051610ff190600f906020840190612965565b6000546001600160a01b031633146111ef5760405162461bcd60e51b815260040161091b90612e86565b600b55565b604080518082019091526000808252602082015261081882611e11565b60606003805461082d90612e4b565b6000546001600160a01b0316331461124a5760405162461bcd60e51b815260040161091b90612e86565b600d80546001600160a01b0319166001600160a01b0392909216919091179055565b6001600160a01b0382163314156112c55760405162461bcd60e51b815260206004820152601a60248201527f455243373231413a20617070726f766520746f2063616c6c6572000000000000604482015260640161091b565b3360008181526007602090815260408083206001600160a01b03871680855290835292819020805460ff191686151590811790915590519081529192917f17307eab39ab6107e8899845ad3d59bd9653f200f220920489ca2b5937696c31910160405180910390a35050565b3233146113805760405162461bcd60e51b815260206004820152601e60248201527f5468652063616c6c657220697320616e6f7468657220636f6e74726163740000604482015260640161091b565b600160125460ff16600281111561139957611399612e0d565b146113df5760405162461bcd60e51b8152602060048201526016602482015275283932b9b0b6329034b9903737ba1030b1ba34bb329760511b604482015260640161091b565b600260095414156114025760405162461bcd60e51b815260040161091b90612f42565b60026009556011548361141460015490565b61141e9190612eec565b11156114615760405162461bcd60e51b815260206004820152601260248201527172656163686564206d617820737570706c7960701b604482015260640161091b565b600a548361146e3361191c565b6114789190612eec565b11156114b65760405162461bcd60e51b815260206004820152600d60248201526c115e18d959591cc81b1a5b5a5d609a1b604482015260640161091b565b6114c08282610a63565b6114ca3384611df7565b6114e083600c546114db9190612f79565b61200a565b5050600160095550565b6000546001600160a01b031633146115145760405162461bcd60e51b815260040161091b90612e86565b600260095414156115375760405162461bcd60e51b815260040161091b90612f42565b6002600955604051600090339047908381818185875af1925050503d806000811461157e576040519150601f19603f3d011682016040523d82523d6000602084013e611583565b606091505b50509050806115c75760405162461bcd60e51b815260206004820152601060248201526f2a3930b739b332b9103330b4b632b21760811b604482015260640161091b565b506001600955565b32331461161e5760405162461bcd60e51b815260206004820152601e60248201527f5468652063616c6c657220697320616e6f7468657220636f6e74726163740000604482015260640161091b565b600260125460ff16600281111561163757611637612e0d565b146116845760405162461bcd60e51b815260206004820152601860248201527f5075626c69632073616c65206973206e6f74206c6976652e0000000000000000604482015260640161091b565b600260095414156116a75760405162461bcd60e51b815260040161091b90612f42565b6002600955601154816116b960015490565b6116c39190612eec565b11156117065760405162461bcd60e51b815260206004820152601260248201527172656163686564206d617820737570706c7960701b604482015260640161091b565b600a54816117133361191c565b61171d9190612eec565b111561175b5760405162461bcd60e51b815260206004820152600d60248201526c115e18d959591cc81b1a5b5a5d609a1b604482015260640161091b565b6117653382611df7565b6115c781600b546114db9190612f79565b611781848484611a4d565b61178d84848484612091565b610efb5760405162461bcd60e51b815260040161091b90612f98565b60606117b6826001541190565b61181a5760405162461bcd60e51b815260206004820152602f60248201527f4552433732314d657461646174613a2055524920717565727920666f72206e6f60448201526e3732bc34b9ba32b73a103a37b5b2b760891b606482015260840161091b565b60105460ff166118b657600f805461183190612e4b565b80601f016020809104026020016040519081016040528092919081815260200182805461185d90612e4b565b80156118aa5780601f1061187f576101008083540402835291602001916118aa565b820191906000526020600020905b81548152906001019060200180831161188d57829003601f168201915b50505050509050919050565b60006118c0612190565b905060008151116118e05760405180602001604052806000815250611915565b806118f46118ef856001612eec565b61219f565b604051602001611905929190612feb565b6040516020818303038152906040525b9392505050565b60006108188261229c565b6000546001600160a01b031633146119515760405162461bcd60e51b815260040161091b90612e86565b600a55565b6000546001600160a01b031633146119805760405162461bcd60e51b815260040161091b90612e86565b6001600160a01b0381166119e55760405162461bcd60e51b815260206004820152602660248201527f4f776e61626c653a206e6577206f776e657220697320746865207a65726f206160448201526564647265737360d01b606482015260840161091b565b6119ee81611fba565b50565b60008281526006602052604080822080546001600160a01b0319166001600160a01b0387811691821790925591518593918516917f8c5be1e5ebec7d5bd14f71427d1e84f3dd0314c0f7b2291e5b200ac8c7c3b92591a4505050565b6000611a5882611e11565b80519091506000906001600160a01b0316336001600160a01b03161480611a8f575033611a84846108b0565b6001600160a01b0316145b80611aa157508151611aa19033610706565b905080611b0b5760405162461bcd60e51b815260206004820152603260248201527f455243373231413a207472616e736665722063616c6c6572206973206e6f74206044820152711bdddb995c881b9bdc88185c1c1c9bdd995960721b606482015260840161091b565b846001600160a01b031682600001516001600160a01b031614611b7f5760405162461bcd60e51b815260206004820152602660248201527f455243373231413a207472616e736665722066726f6d20696e636f72726563746044820152651037bbb732b960d11b606482015260840161091b565b6001600160a01b038416611be35760405162461bcd60e51b815260206004820152602560248201527f455243373231413a207472616e7366657220746f20746865207a65726f206164604482015264647265737360d81b606482015260840161091b565b611bf360008484600001516119f1565b6001600160a01b0385166000908152600560205260408120805460019290611c259084906001600160801b031661302a565b82546101009290920a6001600160801b038181021990931691831602179091556001600160a01b03861660009081526005602052604081208054600194509092611c7191859116613052565b82546001600160801b039182166101009390930a9283029190920219909116179055506040805180820182526001600160a01b0380871682526001600160401b03428116602080850191825260008981526004909152948520935184549151909216600160a01b026001600160e01b03199091169190921617179055611cf8846001612eec565b6000818152600460205260409020549091506001600160a01b0316611d8957611d22816001541190565b15611d895760408051808201825284516001600160a01b0390811682526020808701516001600160401b039081168285019081526000878152600490935294909120925183549451909116600160a01b026001600160e01b03199094169116179190911790555b83856001600160a01b0316876001600160a01b03167fddf252ad1be2c89b69c2b068fc378daa952ba7f163c4a11628f55a4df523b3ef60405160405180910390a45b505050505050565b6000806000611de2858561233a565b91509150611def816123aa565b509392505050565b610ff1828260405180602001604052806000815250612565565b6040805180820190915260008082526020820152611e30826001541190565b611e8f5760405162461bcd60e51b815260206004820152602a60248201527f455243373231413a206f776e657220717565727920666f72206e6f6e657869736044820152693a32b73a103a37b5b2b760b11b606482015260840161091b565b60007f00000000000000000000000000000000000000000000000000000000000000008310611ef057611ee27f00000000000000000000000000000000000000000000000000000000000000008461307d565b611eed906001612eec565b90505b825b818110611f59576000818152600460209081526040918290208251808401909352546001600160a01b038116808452600160a01b9091046001600160401b03169183019190915215611f4657949350505050565b5080611f5181613094565b915050611ef2565b5060405162461bcd60e51b815260206004820152602f60248201527f455243373231413a20756e61626c6520746f2064657465726d696e652074686560448201526e1037bbb732b91037b3103a37b5b2b760891b606482015260840161091b565b600080546001600160a01b038381166001600160a01b0319831681178455604051919092169283917f8be0079c531659141344cd1fd0a4f28419497f9722a3daafe3b4186f6b6457e09190a35050565b803410156120535760405162461bcd60e51b81526020600482015260166024820152752732b2b2103a379039b2b7321036b7b9329022aa241760511b604482015260640161091b565b803411156119ee57336108fc612069833461307d565b6040518115909202916000818181858888f19350505050158015610ff1573d6000803e3d6000fd5b60006001600160a01b0384163b1561218457604051630a85bd0160e11b81526001600160a01b0385169063150b7a02906120d59033908990889088906004016130ab565b6020604051808303816000875af1925050508015612110575060408051601f3d908101601f1916820190925261210d918101906130e8565b60015b61216a573d80801561213e576040519150601f19603f3d011682016040523d82523d6000602084013e612143565b606091505b5080516121625760405162461bcd60e51b815260040161091b90612f98565b805181602001fd5b6001600160e01b031916630a85bd0160e11b149050612188565b5060015b949350505050565b6060600e805461082d90612e4b565b6060816121c35750506040805180820190915260018152600360fc1b602082015290565b8160005b81156121ed57806121d781612ed1565b91506121e69050600a83612f2e565b91506121c7565b6000816001600160401b0381111561220757612207612bdb565b6040519080825280601f01601f191660200182016040528015612231576020820181803683370190505b5090505b84156121885761224660018361307d565b9150612253600a86612f1a565b61225e906030612eec565b60f81b81838151811061227357612273613105565b60200101906001600160f81b031916908160001a905350612295600a86612f2e565b9450612235565b60006001600160a01b03821661230e5760405162461bcd60e51b815260206004820152603160248201527f455243373231413a206e756d626572206d696e74656420717565727920666f7260448201527020746865207a65726f206164647265737360781b606482015260840161091b565b506001600160a01b0316600090815260056020526040902054600160801b90046001600160801b031690565b6000808251604114156123715760208301516040840151606085015160001a6123658782858561283f565b945094505050506123a3565b82516040141561239b576020830151604084015161239086838361292c565b9350935050506123a3565b506000905060025b9250929050565b60008160048111156123be576123be612e0d565b14156123c75750565b60018160048111156123db576123db612e0d565b14156124295760405162461bcd60e51b815260206004820152601860248201527f45434453413a20696e76616c6964207369676e61747572650000000000000000604482015260640161091b565b600281600481111561243d5761243d612e0d565b141561248b5760405162461bcd60e51b815260206004820152601f60248201527f45434453413a20696e76616c6964207369676e6174757265206c656e67746800604482015260640161091b565b600381600481111561249f5761249f612e0d565b14156124f85760405162461bcd60e51b815260206004820152602260248201527f45434453413a20696e76616c6964207369676e6174757265202773272076616c604482015261756560f01b606482015260840161091b565b600481600481111561250c5761250c612e0d565b14156119ee5760405162461bcd60e51b815260206004820152602260248201527f45434453413a20696e76616c6964207369676e6174757265202776272076616c604482015261756560f01b606482015260840161091b565b6001546001600160a01b0384166125c85760405162461bcd60e51b815260206004820152602160248201527f455243373231413a206d696e7420746f20746865207a65726f206164647265736044820152607360f81b606482015260840161091b565b6125d3816001541190565b156126205760405162461bcd60e51b815260206004820152601d60248201527f455243373231413a20746f6b656e20616c7265616479206d696e746564000000604482015260640161091b565b7f000000000000000000000000000000000000000000000000000000000000000083111561269b5760405162461bcd60e51b815260206004820152602260248201527f455243373231413a207175616e7469747920746f206d696e7420746f6f2068696044820152610ced60f31b606482015260840161091b565b6001600160a01b0384166000908152600560209081526040918290208251808401845290546001600160801b038082168352600160801b90910416918101919091528151808301909252805190919081906126f7908790613052565b6001600160801b031681526020018583602001516127159190613052565b6001600160801b039081169091526001600160a01b0380881660008181526005602090815260408083208751978301518716600160801b029790961696909617909455845180860186529182526001600160401b034281168386019081528883526004909552948120915182549451909516600160a01b026001600160e01b031990941694909216939093179190911790915582905b858110156128345760405182906001600160a01b038916906000907fddf252ad1be2c89b69c2b068fc378daa952ba7f163c4a11628f55a4df523b3ef908290a46127f86000888488612091565b6128145760405162461bcd60e51b815260040161091b90612f98565b8161281e81612ed1565b925050808061282c90612ed1565b9150506127ab565b506001819055611dcb565b6000807f7fffffffffffffffffffffffffffffff5d576e7357a4501ddfe92f46681b20a08311156128765750600090506003612923565b8460ff16601b1415801561288e57508460ff16601c14155b1561289f5750600090506004612923565b6040805160008082526020820180845289905260ff881692820192909252606081018690526080810185905260019060a0016020604051602081039080840390855afa1580156128f3573d6000803e3d6000fd5b5050604051601f1901519150506001600160a01b03811661291c57600060019250925050612923565b9150600090505b94509492505050565b6000806001600160ff1b0383168161294960ff86901c601b612eec565b90506129578782888561283f565b935093505050935093915050565b82805461297190612e4b565b90600052602060002090601f01602090048101928261299357600085556129d9565b82601f106129ac57805160ff19168380011785556129d9565b828001600101855582156129d9579182015b828111156129d95782518255916020019190600101906129be565b50610fb09291505b80821115610fb057600081556001016129e1565b6001600160e01b0319811681146119ee57600080fd5b600060208284031215612a1d57600080fd5b8135611915816129f5565b60005b83811015612a43578181015183820152602001612a2b565b83811115610efb5750506000910152565b60008151808452612a6c816020860160208601612a28565b601f01601f19169290920160200192915050565b6020815260006119156020830184612a54565b600060208284031215612aa557600080fd5b5035919050565b80356001600160a01b0381168114612ac357600080fd5b919050565b60008060408385031215612adb57600080fd5b612ae483612aac565b946020939093013593505050565b600080600060608486031215612b0757600080fd5b612b1084612aac565b9250612b1e60208501612aac565b9150604084013590509250925092565b60008083601f840112612b4057600080fd5b5081356001600160401b03811115612b5757600080fd5b6020830191508360208285010111156123a357600080fd5b60008060208385031215612b8257600080fd5b82356001600160401b03811115612b9857600080fd5b612ba485828601612b2e565b90969095509350505050565b80358015158114612ac357600080fd5b600060208284031215612bd257600080fd5b61191582612bb0565b634e487b7160e01b600052604160045260246000fd5b60006001600160401b0380841115612c0b57612c0b612bdb565b604051601f8501601f19908116603f01168101908282118183101715612c3357612c33612bdb565b81604052809350858152868686011115612c4c57600080fd5b858560208301376000602087830101525050509392505050565b600060208284031215612c7857600080fd5b81356001600160401b03811115612c8e57600080fd5b8201601f81018413612c9f57600080fd5b61218884823560208401612bf1565b600060208284031215612cc057600080fd5b81356003811061191557600080fd5b600060208284031215612ce157600080fd5b61191582612aac565b60008060408385031215612cfd57600080fd5b612d0683612aac565b9150612d1460208401612bb0565b90509250929050565b600080600060408486031215612d3257600080fd5b8335925060208401356001600160401b03811115612d4f57600080fd5b612d5b86828701612b2e565b9497909650939450505050565b60008060008060808587031215612d7e57600080fd5b612d8785612aac565b9350612d9560208601612aac565b92506040850135915060608501356001600160401b03811115612db757600080fd5b8501601f81018713612dc857600080fd5b612dd787823560208401612bf1565b91505092959194509250565b60008060408385031215612df657600080fd5b612dff83612aac565b9150612d1460208401612aac565b634e487b7160e01b600052602160045260246000fd5b6020810160038310612e4557634e487b7160e01b600052602160045260246000fd5b91905290565b600181811c90821680612e5f57607f821691505b60208210811415612e8057634e487b7160e01b600052602260045260246000fd5b50919050565b6020808252818101527f4f776e61626c653a2063616c6c6572206973206e6f7420746865206f776e6572604082015260600190565b634e487b7160e01b600052601160045260246000fd5b6000600019821415612ee557612ee5612ebb565b5060010190565b60008219821115612eff57612eff612ebb565b500190565b634e487b7160e01b600052601260045260246000fd5b600082612f2957612f29612f04565b500690565b600082612f3d57612f3d612f04565b500490565b6020808252601f908201527f5265656e7472616e637947756172643a207265656e7472616e742063616c6c00604082015260600190565b6000816000190483118215151615612f9357612f93612ebb565b500290565b60208082526033908201527f455243373231413a207472616e7366657220746f206e6f6e204552433732315260408201527232b1b2b4bb32b91034b6b83632b6b2b73a32b960691b606082015260800190565b60008351612ffd818460208801612a28565b835190830190613011818360208801612a28565b64173539b7b760d91b9101908152600501949350505050565b60006001600160801b038381169083168181101561304a5761304a612ebb565b039392505050565b60006001600160801b0380831681851680830382111561307457613074612ebb565b01949350505050565b60008282101561308f5761308f612ebb565b500390565b6000816130a3576130a3612ebb565b506000190190565b6001600160a01b03858116825284166020820152604081018390526080606082018190526000906130de90830184612a54565b9695505050505050565b6000602082840312156130fa57600080fd5b8151611915816129f5565b634e487b7160e01b600052603260045260246000fdfea2646970667358221220a3641ef8f8172d03fdeb378571a64e9e78ef1e560ce60d13639ecfee2166a1a364736f6c634300080a0033",
  "devdoc": {
    "kind": "dev",
    "methods": {
      "approve(address,uint256)": {
        "details": "See {IERC721-approve}."
      },
      "balanceOf(address)": {
        "details": "See {IERC721-balanceOf}."
      },
      "constructor": {
        "params": {
          "collectionSize_": "NFT collection size",
          "maxBatchSize_": "Max size for ERC721A batch mint."
        }
      },
      "getApproved(uint256)": {
        "details": "See {IERC721-getApproved}."
      },
      "isApprovedForAll(address,address)": {
        "details": "See {IERC721-isApprovedForAll}."
      },
      "name()": {
        "details": "See {IERC721Metadata-name}."
      },
      "owner()": {
        "details": "Returns the address of the current owner."
      },
      "ownerOf(uint256)": {
        "details": "See {IERC721-ownerOf}."
      },
      "renounceOwnership()": {
        "details": "Leaves the contract without owner. It will not be possible to call `onlyOwner` functions anymore. Can only be called by the current owner. NOTE: Renouncing ownership will leave the contract without an owner, thereby removing any functionality that is only available to the owner."
      },
      "safeTransferFrom(address,address,uint256)": {
        "details": "See {IERC721-safeTransferFrom}."
      },
      "safeTransferFrom(address,address,uint256,bytes)": {
        "details": "See {IERC721-safeTransferFrom}."
      },
      "setApprovalForAll(address,bool)": {
        "details": "See {IERC721-setApprovalForAll}."
      },
      "supportsInterface(bytes4)": {
        "details": "See {IERC165-supportsInterface}."
      },
      "symbol()": {
        "details": "See {IERC721Metadata-symbol}."
      },
      "tokenByIndex(uint256)": {
        "details": "See {IERC721Enumerable-tokenByIndex}."
      },
      "tokenOfOwnerByIndex(address,uint256)": {
        "details": "See {IERC721Enumerable-tokenOfOwnerByIndex}. This read function is O(collectionSize). If calling from a separate contract, be sure to test gas first. It may also degrade with extremely large collection sizes (e.g >> 10000), test for your use case."
      },
      "tokenURI(uint256)": {
        "details": "See {IERC721Metadata-tokenURI}."
      },
      "totalSupply()": {
        "details": "See {IERC721Enumerable-totalSupply}."
      },
      "transferFrom(address,address,uint256)": {
        "details": "See {IERC721-transferFrom}."
      },
      "transferOwnership(address)": {
        "details": "Transfers ownership of the contract to a new account (`newOwner`). Can only be called by the current owner."
      }
    },
    "version": 1
  },
  "userdoc": {
    "kind": "user",
    "methods": {},
    "version": 1
  },
  "storageLayout": {
    "storage": [
      {
        "astId": 7,
        "contract": "contracts/DireLej.sol:DireLej",
        "label": "_owner",
        "offset": 0,
        "slot": "0",
        "type": "t_address"
      },
      {
        "astId": 1940,
        "contract": "contracts/DireLej.sol:DireLej",
        "label": "currentIndex",
        "offset": 0,
        "slot": "1",
        "type": "t_uint256"
      },
      {
        "astId": 1946,
        "contract": "contracts/DireLej.sol:DireLej",
        "label": "_name",
        "offset": 0,
        "slot": "2",
        "type": "t_string_storage"
      },
      {
        "astId": 1948,
        "contract": "contracts/DireLej.sol:DireLej",
        "label": "_symbol",
        "offset": 0,
        "slot": "3",
        "type": "t_string_storage"
      },
      {
        "astId": 1953,
        "contract": "contracts/DireLej.sol:DireLej",
        "label": "_ownerships",
        "offset": 0,
        "slot": "4",
        "type": "t_mapping(t_uint256,t_struct(TokenOwnership)1932_storage)"
      },
      {
        "astId": 1958,
        "contract": "contracts/DireLej.sol:DireLej",
        "label": "_addressData",
        "offset": 0,
        "slot": "5",
        "type": "t_mapping(t_address,t_struct(AddressData)1937_storage)"
      },
      {
        "astId": 1962,
        "contract": "contracts/DireLej.sol:DireLej",
        "label": "_tokenApprovals",
        "offset": 0,
        "slot": "6",
        "type": "t_mapping(t_uint256,t_address)"
      },
      {
        "astId": 1968,
        "contract": "contracts/DireLej.sol:DireLej",
        "label": "_operatorApprovals",
        "offset": 0,
        "slot": "7",
        "type": "t_mapping(t_address,t_mapping(t_address,t_bool))"
      },
      {
        "astId": 2911,
        "contract": "contracts/DireLej.sol:DireLej",
        "label": "nextOwnerToExplicitlySet",
        "offset": 0,
        "slot": "8",
        "type": "t_uint256"
      },
      {
        "astId": 115,
        "contract": "contracts/DireLej.sol:DireLej",
        "label": "_status",
        "offset": 0,
        "slot": "9",
        "type": "t_uint256"
      },
      {
        "astId": 1319,
        "contract": "contracts/DireLej.sol:DireLej",
        "label": "maxAmountPerWallet",
        "offset": 0,
        "slot": "10",
        "type": "t_uint256"
      },
      {
        "astId": 1322,
        "contract": "contracts/DireLej.sol:DireLej",
        "label": "publicSalePrice",
        "offset": 0,
        "slot": "11",
        "type": "t_uint256"
      },
      {
        "astId": 1325,
        "contract": "contracts/DireLej.sol:DireLej",
        "label": "presalePrice",
        "offset": 0,
        "slot": "12",
        "type": "t_uint256"
      },
      {
        "astId": 1327,
        "contract": "contracts/DireLej.sol:DireLej",
        "label": "preSaleSigner",
        "offset": 0,
        "slot": "13",
        "type": "t_address"
      },
      {
        "astId": 1329,
        "contract": "contracts/DireLej.sol:DireLej",
        "label": "_baseTokenURI",
        "offset": 0,
        "slot": "14",
        "type": "t_string_storage"
      },
      {
        "astId": 1331,
        "contract": "contracts/DireLej.sol:DireLej",
        "label": "_placeHolderURI",
        "offset": 0,
        "slot": "15",
        "type": "t_string_storage"
      },
      {
        "astId": 1334,
        "contract": "contracts/DireLej.sol:DireLej",
        "label": "reveal",
        "offset": 0,
        "slot": "16",
        "type": "t_bool"
      },
      {
        "astId": 1336,
        "contract": "contracts/DireLej.sol:DireLej",
        "label": "currentSaleAmount",
        "offset": 0,
        "slot": "17",
        "type": "t_uint256"
      },
      {
        "astId": 1345,
        "contract": "contracts/DireLej.sol:DireLej",
        "label": "currentSalePhase",
        "offset": 0,
        "slot": "18",
        "type": "t_enum(SalePhase)1340"
      }
    ],
    "types": {
      "t_address": {
        "encoding": "inplace",
        "label": "address",
        "numberOfBytes": "20"
      },
      "t_bool": {
        "encoding": "inplace",
        "label": "bool",
        "numberOfBytes": "1"
      },
      "t_enum(SalePhase)1340": {
        "encoding": "inplace",
        "label": "enum DireLej.SalePhase",
        "numberOfBytes": "1"
      },
      "t_mapping(t_address,t_bool)": {
        "encoding": "mapping",
        "key": "t_address",
        "label": "mapping(address => bool)",
        "numberOfBytes": "32",
        "value": "t_bool"
      },
      "t_mapping(t_address,t_mapping(t_address,t_bool))": {
        "encoding": "mapping",
        "key": "t_address",
        "label": "mapping(address => mapping(address => bool))",
        "numberOfBytes": "32",
        "value": "t_mapping(t_address,t_bool)"
      },
      "t_mapping(t_address,t_struct(AddressData)1937_storage)": {
        "encoding": "mapping",
        "key": "t_address",
        "label": "mapping(address => struct ERC721A.AddressData)",
        "numberOfBytes": "32",
        "value": "t_struct(AddressData)1937_storage"
      },
      "t_mapping(t_uint256,t_address)": {
        "encoding": "mapping",
        "key": "t_uint256",
        "label": "mapping(uint256 => address)",
        "numberOfBytes": "32",
        "value": "t_address"
      },
      "t_mapping(t_uint256,t_struct(TokenOwnership)1932_storage)": {
        "encoding": "mapping",
        "key": "t_uint256",
        "label": "mapping(uint256 => struct ERC721A.TokenOwnership)",
        "numberOfBytes": "32",
        "value": "t_struct(TokenOwnership)1932_storage"
      },
      "t_string_storage": {
        "encoding": "bytes",
        "label": "string",
        "numberOfBytes": "32"
      },
      "t_struct(AddressData)1937_storage": {
        "encoding": "inplace",
        "label": "struct ERC721A.AddressData",
        "members": [
          {
            "astId": 1934,
            "contract": "contracts/DireLej.sol:DireLej",
            "label": "balance",
            "offset": 0,
            "slot": "0",
            "type": "t_uint128"
          },
          {
            "astId": 1936,
            "contract": "contracts/DireLej.sol:DireLej",
            "label": "numberMinted",
            "offset": 16,
            "slot": "0",
            "type": "t_uint128"
          }
        ],
        "numberOfBytes": "32"
      },
      "t_struct(TokenOwnership)1932_storage": {
        "encoding": "inplace",
        "label": "struct ERC721A.TokenOwnership",
        "members": [
          {
            "astId": 1929,
            "contract": "contracts/DireLej.sol:DireLej",
            "label": "addr",
            "offset": 0,
            "slot": "0",
            "type": "t_address"
          },
          {
            "astId": 1931,
            "contract": "contracts/DireLej.sol:DireLej",
            "label": "startTimestamp",
            "offset": 20,
            "slot": "0",
            "type": "t_uint64"
          }
        ],
        "numberOfBytes": "32"
      },
      "t_uint128": {
        "encoding": "inplace",
        "label": "uint128",
        "numberOfBytes": "16"
      },
      "t_uint256": {
        "encoding": "inplace",
        "label": "uint256",
        "numberOfBytes": "32"
      },
      "t_uint64": {
        "encoding": "inplace",
        "label": "uint64",
        "numberOfBytes": "8"
      }
    }
  }
}