{
  "address": "0x949a6456A48a6ab57A92Bc6641b265a4eb36DA69",
  "abi": [
    {
      "inputs": [
        {
          "internalType": "string",
          "name": "_baseURIString",
          "type": "string"
        },
        {
          "internalType": "string",
          "name": "_placeholder",
          "type": "string"
        },
        {
          "internalType": "uint256",
          "name": "maxBatchSize_",
          "type": "uint256"
        },
        {
          "internalType": "uint256",
          "name": "collectionSize_",
          "type": "uint256"
        },
        {
          "internalType": "address",
          "name": "signerAddress",
          "type": "address"
        }
      ],
      "stateMutability": "nonpayable",
      "type": "constructor"
    },
    {
      "anonymous": false,
      "inputs": [
        {
          "indexed": true,
          "internalType": "address",
          "name": "owner",
          "type": "address"
        },
        {
          "indexed": true,
          "internalType": "address",
          "name": "approved",
          "type": "address"
        },
        {
          "indexed": true,
          "internalType": "uint256",
          "name": "tokenId",
          "type": "uint256"
        }
      ],
      "name": "Approval",
      "type": "event"
    },
    {
      "anonymous": false,
      "inputs": [
        {
          "indexed": true,
          "internalType": "address",
          "name": "owner",
          "type": "address"
        },
        {
          "indexed": true,
          "internalType": "address",
          "name": "operator",
          "type": "address"
        },
        {
          "indexed": false,
          "internalType": "bool",
          "name": "approved",
          "type": "bool"
        }
      ],
      "name": "ApprovalForAll",
      "type": "event"
    },
    {
      "anonymous": false,
      "inputs": [
        {
          "indexed": true,
          "internalType": "address",
          "name": "previousOwner",
          "type": "address"
        },
        {
          "indexed": true,
          "internalType": "address",
          "name": "newOwner",
          "type": "address"
        }
      ],
      "name": "OwnershipTransferred",
      "type": "event"
    },
    {
      "anonymous": false,
      "inputs": [
        {
          "indexed": true,
          "internalType": "address",
          "name": "from",
          "type": "address"
        },
        {
          "indexed": true,
          "internalType": "address",
          "name": "to",
          "type": "address"
        },
        {
          "indexed": true,
          "internalType": "uint256",
          "name": "tokenId",
          "type": "uint256"
        }
      ],
      "name": "Transfer",
      "type": "event"
    },
    {
      "inputs": [
        {
          "internalType": "address",
          "name": "to",
          "type": "address"
        },
        {
          "internalType": "uint256",
          "name": "tokenId",
          "type": "uint256"
        }
      ],
      "name": "approve",
      "outputs": [],
      "stateMutability": "nonpayable",
      "type": "function"
    },
    {
      "inputs": [
        {
          "internalType": "address",
          "name": "owner",
          "type": "address"
        }
      ],
      "name": "balanceOf",
      "outputs": [
        {
          "internalType": "uint256",
          "name": "",
          "type": "uint256"
        }
      ],
      "stateMutability": "view",
      "type": "function"
    },
    {
      "inputs": [],
      "name": "currentSalePhase",
      "outputs": [
        {
          "internalType": "enum DireLej.SalePhase",
          "name": "",
          "type": "uint8"
        }
      ],
      "stateMutability": "view",
      "type": "function"
    },
    {
      "inputs": [
        {
          "internalType": "uint256",
          "name": "quantity",
          "type": "uint256"
        }
      ],
      "name": "devMint",
      "outputs": [],
      "stateMutability": "nonpayable",
      "type": "function"
    },
    {
      "inputs": [
        {
          "internalType": "uint256",
          "name": "tokenId",
          "type": "uint256"
        }
      ],
      "name": "getApproved",
      "outputs": [
        {
          "internalType": "address",
          "name": "",
          "type": "address"
        }
      ],
      "stateMutability": "view",
      "type": "function"
    },
    {
      "inputs": [
        {
          "internalType": "uint256",
          "name": "tokenId",
          "type": "uint256"
        }
      ],
      "name": "getOwnershipData",
      "outputs": [
        {
          "components": [
            {
              "internalType": "address",
              "name": "addr",
              "type": "address"
            },
            {
              "internalType": "uint64",
              "name": "startTimestamp",
              "type": "uint64"
            }
          ],
          "internalType": "struct ERC721A.TokenOwnership",
          "name": "",
          "type": "tuple"
        }
      ],
      "stateMutability": "view",
      "type": "function"
    },
    {
      "inputs": [
        {
          "internalType": "address",
          "name": "owner",
          "type": "address"
        },
        {
          "internalType": "address",
          "name": "operator",
          "type": "address"
        }
      ],
      "name": "isApprovedForAll",
      "outputs": [
        {
          "internalType": "bool",
          "name": "",
          "type": "bool"
        }
      ],
      "stateMutability": "view",
      "type": "function"
    },
    {
      "inputs": [],
      "name": "maxAmountPerWallet",
      "outputs": [
        {
          "internalType": "uint256",
          "name": "",
          "type": "uint256"
        }
      ],
      "stateMutability": "view",
      "type": "function"
    },
    {
      "inputs": [],
      "name": "name",
      "outputs": [
        {
          "internalType": "string",
          "name": "",
          "type": "string"
        }
      ],
      "stateMutability": "view",
      "type": "function"
    },
    {
      "inputs": [],
      "name": "nextOwnerToExplicitlySet",
      "outputs": [
        {
          "internalType": "uint256",
          "name": "",
          "type": "uint256"
        }
      ],
      "stateMutability": "view",
      "type": "function"
    },
    {
      "inputs": [
        {
          "internalType": "address",
          "name": "owner",
          "type": "address"
        }
      ],
      "name": "numberMinted",
      "outputs": [
        {
          "internalType": "uint256",
          "name": "",
          "type": "uint256"
        }
      ],
      "stateMutability": "view",
      "type": "function"
    },
    {
      "inputs": [],
      "name": "owner",
      "outputs": [
        {
          "internalType": "address",
          "name": "",
          "type": "address"
        }
      ],
      "stateMutability": "view",
      "type": "function"
    },
    {
      "inputs": [
        {
          "internalType": "uint256",
          "name": "tokenId",
          "type": "uint256"
        }
      ],
      "name": "ownerOf",
      "outputs": [
        {
          "internalType": "address",
          "name": "",
          "type": "address"
        }
      ],
      "stateMutability": "view",
      "type": "function"
    },
    {
      "inputs": [
        {
          "internalType": "uint256",
          "name": "quantity",
          "type": "uint256"
        },
        {
          "internalType": "bytes",
          "name": "signature",
          "type": "bytes"
        }
      ],
      "name": "preSaleMint",
      "outputs": [],
      "stateMutability": "payable",
      "type": "function"
    },
    {
      "inputs": [],
      "name": "presalePrice",
      "outputs": [
        {
          "internalType": "uint256",
          "name": "",
          "type": "uint256"
        }
      ],
      "stateMutability": "view",
      "type": "function"
    },
    {
      "inputs": [
        {
          "internalType": "uint256",
          "name": "quantity",
          "type": "uint256"
        }
      ],
      "name": "publicSaleMint",
      "outputs": [],
      "stateMutability": "payable",
      "type": "function"
    },
    {
      "inputs": [],
      "name": "publicSalePrice",
      "outputs": [
        {
          "internalType": "uint256",
          "name": "",
          "type": "uint256"
        }
      ],
      "stateMutability": "view",
      "type": "function"
    },
    {
      "inputs": [],
      "name": "renounceOwnership",
      "outputs": [],
      "stateMutability": "nonpayable",
      "type": "function"
    },
    {
      "inputs": [],
      "name": "reveal",
      "outputs": [
        {
          "internalType": "bool",
          "name": "",
          "type": "bool"
        }
      ],
      "stateMutability": "view",
      "type": "function"
    },
    {
      "inputs": [
        {
          "internalType": "address",
          "name": "from",
          "type": "address"
        },
        {
          "internalType": "address",
          "name": "to",
          "type": "address"
        },
        {
          "internalType": "uint256",
          "name": "tokenId",
          "type": "uint256"
        }
      ],
      "name": "safeTransferFrom",
      "outputs": [],
      "stateMutability": "nonpayable",
      "type": "function"
    },
    {
      "inputs": [
        {
          "internalType": "address",
          "name": "from",
          "type": "address"
        },
        {
          "internalType": "address",
          "name": "to",
          "type": "address"
        },
        {
          "internalType": "uint256",
          "name": "tokenId",
          "type": "uint256"
        },
        {
          "internalType": "bytes",
          "name": "_data",
          "type": "bytes"
        }
      ],
      "name": "safeTransferFrom",
      "outputs": [],
      "stateMutability": "nonpayable",
      "type": "function"
    },
    {
      "inputs": [
        {
          "internalType": "address",
          "name": "operator",
          "type": "address"
        },
        {
          "internalType": "bool",
          "name": "approved",
          "type": "bool"
        }
      ],
      "name": "setApprovalForAll",
      "outputs": [],
      "stateMutability": "nonpayable",
      "type": "function"
    },
    {
      "inputs": [
        {
          "internalType": "string",
          "name": "baseURI",
          "type": "string"
        }
      ],
      "name": "setBaseURI",
      "outputs": [],
      "stateMutability": "nonpayable",
      "type": "function"
    },
    {
      "inputs": [
        {
          "internalType": "string",
          "name": "_uri",
          "type": "string"
        }
      ],
      "name": "setPlaceHolderURI",
      "outputs": [],
      "stateMutability": "nonpayable",
      "type": "function"
    },
    {
      "inputs": [
        {
          "internalType": "address",
          "name": "signer",
          "type": "address"
        }
      ],
      "name": "setPreSaleSigner",
      "outputs": [],
      "stateMutability": "nonpayable",
      "type": "function"
    },
    {
      "inputs": [
        {
          "internalType": "uint256",
          "name": "_price",
          "type": "uint256"
        }
      ],
      "name": "setPresalePrice",
      "outputs": [],
      "stateMutability": "nonpayable",
      "type": "function"
    },
    {
      "inputs": [
        {
          "internalType": "uint256",
          "name": "_price",
          "type": "uint256"
        }
      ],
      "name": "setPublicSalePrice",
      "outputs": [],
      "stateMutability": "nonpayable",
      "type": "function"
    },
    {
      "inputs": [
        {
          "internalType": "bool",
          "name": "value",
          "type": "bool"
        }
      ],
      "name": "setReveal",
      "outputs": [],
      "stateMutability": "nonpayable",
      "type": "function"
    },
    {
      "inputs": [
        {
          "internalType": "enum DireLej.SalePhase",
          "name": "phase",
          "type": "uint8"
        }
      ],
      "name": "setSaleMode",
      "outputs": [],
      "stateMutability": "nonpayable",
      "type": "function"
    },
    {
      "inputs": [
        {
          "internalType": "uint256",
          "name": "_limit",
          "type": "uint256"
        }
      ],
      "name": "setWalletLimit",
      "outputs": [],
      "stateMutability": "nonpayable",
      "type": "function"
    },
    {
      "inputs": [
        {
          "internalType": "bytes4",
          "name": "interfaceId",
          "type": "bytes4"
        }
      ],
      "name": "supportsInterface",
      "outputs": [
        {
          "internalType": "bool",
          "name": "",
          "type": "bool"
        }
      ],
      "stateMutability": "view",
      "type": "function"
    },
    {
      "inputs": [],
      "name": "symbol",
      "outputs": [
        {
          "internalType": "string",
          "name": "",
          "type": "string"
        }
      ],
      "stateMutability": "view",
      "type": "function"
    },
    {
      "inputs": [
        {
          "internalType": "uint256",
          "name": "index",
          "type": "uint256"
        }
      ],
      "name": "tokenByIndex",
      "outputs": [
        {
          "internalType": "uint256",
          "name": "",
          "type": "uint256"
        }
      ],
      "stateMutability": "view",
      "type": "function"
    },
    {
      "inputs": [
        {
          "internalType": "address",
          "name": "owner",
          "type": "address"
        },
        {
          "internalType": "uint256",
          "name": "index",
          "type": "uint256"
        }
      ],
      "name": "tokenOfOwnerByIndex",
      "outputs": [
        {
          "internalType": "uint256",
          "name": "",
          "type": "uint256"
        }
      ],
      "stateMutability": "view",
      "type": "function"
    },
    {
      "inputs": [
        {
          "internalType": "uint256",
          "name": "tokenId",
          "type": "uint256"
        }
      ],
      "name": "tokenURI",
      "outputs": [
        {
          "internalType": "string",
          "name": "",
          "type": "string"
        }
      ],
      "stateMutability": "view",
      "type": "function"
    },
    {
      "inputs": [],
      "name": "totalSupply",
      "outputs": [
        {
          "internalType": "uint256",
          "name": "",
          "type": "uint256"
        }
      ],
      "stateMutability": "view",
      "type": "function"
    },
    {
      "inputs": [
        {
          "internalType": "address",
          "name": "from",
          "type": "address"
        },
        {
          "internalType": "address",
          "name": "to",
          "type": "address"
        },
        {
          "internalType": "uint256",
          "name": "tokenId",
          "type": "uint256"
        }
      ],
      "name": "transferFrom",
      "outputs": [],
      "stateMutability": "nonpayable",
      "type": "function"
    },
    {
      "inputs": [
        {
          "internalType": "address",
          "name": "newOwner",
          "type": "address"
        }
      ],
      "name": "transferOwnership",
      "outputs": [],
      "stateMutability": "nonpayable",
      "type": "function"
    },
    {
      "inputs": [
        {
          "internalType": "bytes",
          "name": "signature",
          "type": "bytes"
        }
      ],
      "name": "verifySigner",
      "outputs": [],
      "stateMutability": "view",
      "type": "function"
    },
    {
      "inputs": [],
      "name": "withdrawMoney",
      "outputs": [],
      "stateMutability": "nonpayable",
      "type": "function"
    }
  ],
  "transactionHash": "0x6671147007697ea99a2237005c03b4ea0b952185131f23f721da72e9d5efe496",
  "args": [
    "https://gateway.pinata.cloud/ipfs/QmchQb5AmN17JyLDMFimADLqvJ6o9iy3mJseDLQcwqxWcy/",
    "",
    5,
    7777,
    "0xeA860Ae1b9aEB06b674664c5496D2F8Ee7C4BBFA"
  ],
  "numDeployments": 1,
  "solcInputHash": "edbe4cb653b6c317efefd32b277d981a",
  "bytecode": "0x60c0604052600060018190556008556706f05b59d3b20000600b556702c68af0bb140000600c556010805461ff00191690553480156200003e57600080fd5b5060405162003660380380620036608339810160408190526200006191620003e7565b604051806040016040528060078152602001662234b932a632b560c91b815250604051806040016040528060048152602001632229262560e11b8152508484620000ba620000b46200022060201b60201c565b62000224565b60008111620001275760405162461bcd60e51b815260206004820152602e60248201527f455243373231413a20636f6c6c656374696f6e206d757374206861766520612060448201526d6e6f6e7a65726f20737570706c7960901b60648201526084015b60405180910390fd5b60008211620001895760405162461bcd60e51b815260206004820152602760248201527f455243373231413a206d61782062617463682073697a65206d757374206265206044820152666e6f6e7a65726f60c81b60648201526084016200011e565b83516200019e90600290602087019062000274565b508251620001b490600390602086019062000274565b5060a091909152608052505060016009558451620001da90600e90602088019062000274565b508351620001f090600f90602087019062000274565b50600a9290925550600d80546001600160a01b0319166001600160a01b0390921691909117905550620004c69050565b3390565b600080546001600160a01b038381166001600160a01b0319831681178455604051919092169283917f8be0079c531659141344cd1fd0a4f28419497f9722a3daafe3b4186f6b6457e09190a35050565b828054620002829062000489565b90600052602060002090601f016020900481019282620002a65760008555620002f1565b82601f10620002c157805160ff1916838001178555620002f1565b82800160010185558215620002f1579182015b82811115620002f1578251825591602001919060010190620002d4565b50620002ff92915062000303565b5090565b5b80821115620002ff576000815560010162000304565b634e487b7160e01b600052604160045260246000fd5b600082601f8301126200034257600080fd5b81516001600160401b03808211156200035f576200035f6200031a565b604051601f8301601f19908116603f011681019082821181831017156200038a576200038a6200031a565b81604052838152602092508683858801011115620003a757600080fd5b600091505b83821015620003cb5785820183015181830184015290820190620003ac565b83821115620003dd5760008385830101525b9695505050505050565b600080600080600060a086880312156200040057600080fd5b85516001600160401b03808211156200041857600080fd5b6200042689838a0162000330565b965060208801519150808211156200043d57600080fd5b506200044c8882890162000330565b6040880151606089015160808a0151929750909550935090506001600160a01b03811681146200047b57600080fd5b809150509295509295909350565b600181811c908216806200049e57607f821691505b60208210811415620004c057634e487b7160e01b600052602260045260246000fd5b50919050565b60805160a05161313c6200052460003960008181610d9801528181610dc301528181610e4e01528181610e7b01528181611e7e01528181611ea8015261260d015260008181610d20015281816113bd0152611685015261313c6000f3fe60806040526004361061023a5760003560e01c806377a73a081161012e578063ac446002116100ab578063dc33e6811161006f578063dc33e68114610695578063e985e9c5146106b5578063f1d5f517146106fe578063f2fde38b1461071e578063f53da97e1461073e57600080fd5b8063ac44600214610617578063b3ab66b01461062c578063b88d4fde1461063f578063c87b56dd1461065f578063d7224ba01461067f57600080fd5b80639b6860c8116100f25780639b6860c8146105945780639f1c9b05146105aa578063a22cb465146105ca578063a272284a146105ea578063a475b5dd146105fd57600080fd5b806377a73a08146104d4578063791a2519146104f45780638da5cb5b146105145780639231ab2a1461053257806395d89b411461057f57600080fd5b80633549345e116101bc57806355f804b31161018057806355f804b31461043f5780636352211e1461045f578063689e13951461047f57806370a082311461049f578063715018a6146104bf57600080fd5b80633549345e146103a957806336db7129146103c9578063375a069a146103df57806342842e0e146103ff5780634f6ccce71461041f57600080fd5b806318160ddd1161020357806318160ddd1461031457806323b872dd14610329578063278e25ed146103495780632a3f300c146103695780632f745c591461038957600080fd5b80620e7fa81461023f57806301ffc9a71461026857806306fdde0314610298578063081812fc146102ba578063095ea7b3146102f2575b600080fd5b34801561024b57600080fd5b50610255600c5481565b6040519081526020015b60405180910390f35b34801561027457600080fd5b506102886102833660046129f6565b61076a565b604051901515815260200161025f565b3480156102a457600080fd5b506102ad6107d7565b60405161025f9190612a6b565b3480156102c657600080fd5b506102da6102d5366004612a7e565b610869565b6040516001600160a01b03909116815260200161025f565b3480156102fe57600080fd5b5061031261030d366004612ab3565b6108f9565b005b34801561032057600080fd5b50600154610255565b34801561033557600080fd5b50610312610344366004612add565b610a11565b34801561035557600080fd5b50610312610364366004612b5a565b610a1c565b34801561037557600080fd5b50610312610384366004612bab565b610b10565b34801561039557600080fd5b506102556103a4366004612ab3565b610b4d565b3480156103b557600080fd5b506103126103c4366004612a7e565b610cc5565b3480156103d557600080fd5b50610255600a5481565b3480156103eb57600080fd5b506103126103fa366004612a7e565b610cf4565b34801561040b57600080fd5b5061031261041a366004612add565b610ed8565b34801561042b57600080fd5b5061025561043a366004612a7e565b610ef3565b34801561044b57600080fd5b5061031261045a366004612c51565b610f5c565b34801561046b57600080fd5b506102da61047a366004612a7e565b610f9d565b34801561048b57600080fd5b5061031261049a366004612c99565b610faf565b3480156104ab57600080fd5b506102556104ba366004612cba565b611070565b3480156104cb57600080fd5b50610312611101565b3480156104e057600080fd5b506103126104ef366004612c51565b611137565b34801561050057600080fd5b5061031261050f366004612a7e565b611174565b34801561052057600080fd5b506000546001600160a01b03166102da565b34801561053e57600080fd5b5061055261054d366004612a7e565b6111a3565b6040805182516001600160a01b031681526020928301516001600160401b0316928101929092520161025f565b34801561058b57600080fd5b506102ad6111c0565b3480156105a057600080fd5b50610255600b5481565b3480156105b657600080fd5b506103126105c5366004612cba565b6111cf565b3480156105d657600080fd5b506103126105e5366004612cd5565b61121b565b6103126105f8366004612d08565b6112e0565b34801561060957600080fd5b506010546102889060ff1681565b34801561062357600080fd5b506103126114bc565b61031261063a366004612a7e565b6115a1565b34801561064b57600080fd5b5061031261065a366004612d53565b61176b565b34801561066b57600080fd5b506102ad61067a366004612a7e565b61179e565b34801561068b57600080fd5b5061025560085481565b3480156106a157600080fd5b506102556106b0366004612cba565b611907565b3480156106c157600080fd5b506102886106d0366004612dce565b6001600160a01b03918216600090815260076020908152604080832093909416825291909152205460ff1690565b34801561070a57600080fd5b50610312610719366004612a7e565b611912565b34801561072a57600080fd5b50610312610739366004612cba565b611941565b34801561074a57600080fd5b5060105461075d90610100900460ff1681565b60405161025f9190612e0e565b60006001600160e01b031982166380ac58cd60e01b148061079b57506001600160e01b03198216635b5e139f60e01b145b806107b657506001600160e01b0319821663780e9d6360e01b145b806107d157506301ffc9a760e01b6001600160e01b03198316145b92915050565b6060600280546107e690612e36565b80601f016020809104026020016040519081016040528092919081815260200182805461081290612e36565b801561085f5780601f106108345761010080835404028352916020019161085f565b820191906000526020600020905b81548152906001019060200180831161084257829003601f168201915b5050505050905090565b6000610876826001541190565b6108dd5760405162461bcd60e51b815260206004820152602d60248201527f455243373231413a20617070726f76656420717565727920666f72206e6f6e6560448201526c3c34b9ba32b73a103a37b5b2b760991b60648201526084015b60405180910390fd5b506000908152600660205260409020546001600160a01b031690565b600061090482610f9d565b9050806001600160a01b0316836001600160a01b031614156109735760405162461bcd60e51b815260206004820152602260248201527f455243373231413a20617070726f76616c20746f2063757272656e74206f776e60448201526132b960f11b60648201526084016108d4565b336001600160a01b038216148061098f575061098f81336106d0565b610a015760405162461bcd60e51b815260206004820152603960248201527f455243373231413a20617070726f76652063616c6c6572206973206e6f74206f60448201527f776e6572206e6f7220617070726f76656420666f7220616c6c0000000000000060648201526084016108d4565b610a0c8383836119dc565b505050565b610a0c838383611a38565b604080513360601b6bffffffffffffffffffffffff1916602080830191909152825160148184030181526034830184528051908201207f19457468657265756d205369676e6564204d6573736167653a0a3332000000006054840152607080840182905284518085039091018152609090930190935281519101206000610ad98286868080601f016020809104026020016040519081016040528093929190818152602001838380828437600092019190915250611dbe92505050565b90506001600160a01b03811615801590610b005750600d546001600160a01b038281169116145b610b0957600080fd5b5050505050565b6000546001600160a01b03163314610b3a5760405162461bcd60e51b81526004016108d490612e71565b6010805460ff1916911515919091179055565b6000610b5883611070565b8210610bb15760405162461bcd60e51b815260206004820152602260248201527f455243373231413a206f776e657220696e646578206f7574206f6620626f756e604482015261647360f01b60648201526084016108d4565b6000610bbc60015490565b905060008060005b83811015610c65576000818152600460209081526040918290208251808401909352546001600160a01b038116808452600160a01b9091046001600160401b03169183019190915215610c1657805192505b876001600160a01b0316836001600160a01b03161415610c525786841415610c44575093506107d192505050565b83610c4e81612ebc565b9450505b5080610c5d81612ebc565b915050610bc4565b5060405162461bcd60e51b815260206004820152602e60248201527f455243373231413a20756e61626c6520746f2067657420746f6b656e206f662060448201526d0deeedccae440c4f240d2dcc8caf60931b60648201526084016108d4565b6000546001600160a01b03163314610cef5760405162461bcd60e51b81526004016108d490612e71565b600c55565b6000546001600160a01b03163314610d1e5760405162461bcd60e51b81526004016108d490612e71565b7f000000000000000000000000000000000000000000000000000000000000000081610d4960015490565b610d539190612ed7565b1115610d965760405162461bcd60e51b815260206004820152601260248201527145786365656473204d617820537570706c7960701b60448201526064016108d4565b7f0000000000000000000000000000000000000000000000000000000000000000811115610e4a57610de87f000000000000000000000000000000000000000000000000000000000000000082612f05565b15610e4a5760405162461bcd60e51b815260206004820152602c60248201527f63616e206f6e6c79206d696e742061206d756c7469706c65206f66207468652060448201526b6d6178426174636853697a6560a01b60648201526084016108d4565b60007f00000000000000000000000000000000000000000000000000000000000000008211610e795781610e9b565b7f00000000000000000000000000000000000000000000000000000000000000005b90506000610ea98284612f19565b905060005b81811015610ed257610ec03384611de2565b80610eca81612ebc565b915050610eae565b50505050565b610a0c8383836040518060200160405280600081525061176b565b6000610efe60015490565b8210610f585760405162461bcd60e51b815260206004820152602360248201527f455243373231413a20676c6f62616c20696e646578206f7574206f6620626f756044820152626e647360e81b60648201526084016108d4565b5090565b6000546001600160a01b03163314610f865760405162461bcd60e51b81526004016108d490612e71565b8051610f9990600e906020840190612950565b5050565b6000610fa882611dfc565b5192915050565b6000546001600160a01b03163314610fd95760405162461bcd60e51b81526004016108d490612e71565b806002811115610feb57610feb612df8565b601054610100900460ff16600281111561100757611007612df8565b14156110475760405162461bcd60e51b815260206004820152600f60248201526e20b63932b0b23c9030b1ba34bb329760891b60448201526064016108d4565b6010805482919061ff00191661010083600281111561106857611068612df8565b021790555050565b60006001600160a01b0382166110dc5760405162461bcd60e51b815260206004820152602b60248201527f455243373231413a2062616c616e636520717565727920666f7220746865207a60448201526a65726f206164647265737360a81b60648201526084016108d4565b506001600160a01b03166000908152600560205260409020546001600160801b031690565b6000546001600160a01b0316331461112b5760405162461bcd60e51b81526004016108d490612e71565b6111356000611fa5565b565b6000546001600160a01b031633146111615760405162461bcd60e51b81526004016108d490612e71565b8051610f9990600f906020840190612950565b6000546001600160a01b0316331461119e5760405162461bcd60e51b81526004016108d490612e71565b600b55565b60408051808201909152600080825260208201526107d182611dfc565b6060600380546107e690612e36565b6000546001600160a01b031633146111f95760405162461bcd60e51b81526004016108d490612e71565b600d80546001600160a01b0319166001600160a01b0392909216919091179055565b6001600160a01b0382163314156112745760405162461bcd60e51b815260206004820152601a60248201527f455243373231413a20617070726f766520746f2063616c6c657200000000000060448201526064016108d4565b3360008181526007602090815260408083206001600160a01b03871680855290835292819020805460ff191686151590811790915590519081529192917f17307eab39ab6107e8899845ad3d59bd9653f200f220920489ca2b5937696c31910160405180910390a35050565b32331461132f5760405162461bcd60e51b815260206004820152601e60248201527f5468652063616c6c657220697320616e6f7468657220636f6e7472616374000060448201526064016108d4565b6001601054610100900460ff16600281111561134d5761134d612df8565b146113935760405162461bcd60e51b8152602060048201526016602482015275283932b9b0b6329034b9903737ba1030b1ba34bb329760511b60448201526064016108d4565b600260095414156113b65760405162461bcd60e51b81526004016108d490612f2d565b60026009557f0000000000000000000000000000000000000000000000000000000000000000836113e660015490565b6113f09190612ed7565b11156114335760405162461bcd60e51b815260206004820152601260248201527172656163686564206d617820737570706c7960701b60448201526064016108d4565b600a548361144033611907565b61144a9190612ed7565b11156114885760405162461bcd60e51b815260206004820152600d60248201526c115e18d959591cc81b1a5b5a5d609a1b60448201526064016108d4565b6114928282610a1c565b61149c3384611de2565b6114b283600c546114ad9190612f64565b611ff5565b5050600160095550565b6000546001600160a01b031633146114e65760405162461bcd60e51b81526004016108d490612e71565b600260095414156115095760405162461bcd60e51b81526004016108d490612f2d565b6002600955604051600090339047908381818185875af1925050503d8060008114611550576040519150601f19603f3d011682016040523d82523d6000602084013e611555565b606091505b50509050806115995760405162461bcd60e51b815260206004820152601060248201526f2a3930b739b332b9103330b4b632b21760811b60448201526064016108d4565b506001600955565b3233146115f05760405162461bcd60e51b815260206004820152601e60248201527f5468652063616c6c657220697320616e6f7468657220636f6e7472616374000060448201526064016108d4565b6002601054610100900460ff16600281111561160e5761160e612df8565b1461165b5760405162461bcd60e51b815260206004820152601860248201527f5075626c69632073616c65206973206e6f74206c6976652e000000000000000060448201526064016108d4565b6002600954141561167e5760405162461bcd60e51b81526004016108d490612f2d565b60026009557f0000000000000000000000000000000000000000000000000000000000000000816116ae60015490565b6116b89190612ed7565b11156116fb5760405162461bcd60e51b815260206004820152601260248201527172656163686564206d617820737570706c7960701b60448201526064016108d4565b600a548161170833611907565b6117129190612ed7565b11156117505760405162461bcd60e51b815260206004820152600d60248201526c115e18d959591cc81b1a5b5a5d609a1b60448201526064016108d4565b61175a3382611de2565b61159981600b546114ad9190612f64565b611776848484611a38565b6117828484848461207c565b610ed25760405162461bcd60e51b81526004016108d490612f83565b60606117ab826001541190565b61180f5760405162461bcd60e51b815260206004820152602f60248201527f4552433732314d657461646174613a2055524920717565727920666f72206e6f60448201526e3732bc34b9ba32b73a103a37b5b2b760891b60648201526084016108d4565b60105460ff166118ab57600f805461182690612e36565b80601f016020809104026020016040519081016040528092919081815260200182805461185290612e36565b801561189f5780601f106118745761010080835404028352916020019161189f565b820191906000526020600020905b81548152906001019060200180831161188257829003601f168201915b50505050509050919050565b60006118b561217b565b905060008151116118d55760405180602001604052806000815250611900565b806118df8461218a565b6040516020016118f0929190612fd6565b6040516020818303038152906040525b9392505050565b60006107d182612287565b6000546001600160a01b0316331461193c5760405162461bcd60e51b81526004016108d490612e71565b600a55565b6000546001600160a01b0316331461196b5760405162461bcd60e51b81526004016108d490612e71565b6001600160a01b0381166119d05760405162461bcd60e51b815260206004820152602660248201527f4f776e61626c653a206e6577206f776e657220697320746865207a65726f206160448201526564647265737360d01b60648201526084016108d4565b6119d981611fa5565b50565b60008281526006602052604080822080546001600160a01b0319166001600160a01b0387811691821790925591518593918516917f8c5be1e5ebec7d5bd14f71427d1e84f3dd0314c0f7b2291e5b200ac8c7c3b92591a4505050565b6000611a4382611dfc565b80519091506000906001600160a01b0316336001600160a01b03161480611a7a575033611a6f84610869565b6001600160a01b0316145b80611a8c57508151611a8c90336106d0565b905080611af65760405162461bcd60e51b815260206004820152603260248201527f455243373231413a207472616e736665722063616c6c6572206973206e6f74206044820152711bdddb995c881b9bdc88185c1c1c9bdd995960721b60648201526084016108d4565b846001600160a01b031682600001516001600160a01b031614611b6a5760405162461bcd60e51b815260206004820152602660248201527f455243373231413a207472616e736665722066726f6d20696e636f72726563746044820152651037bbb732b960d11b60648201526084016108d4565b6001600160a01b038416611bce5760405162461bcd60e51b815260206004820152602560248201527f455243373231413a207472616e7366657220746f20746865207a65726f206164604482015264647265737360d81b60648201526084016108d4565b611bde60008484600001516119dc565b6001600160a01b0385166000908152600560205260408120805460019290611c109084906001600160801b0316613015565b82546101009290920a6001600160801b038181021990931691831602179091556001600160a01b03861660009081526005602052604081208054600194509092611c5c9185911661303d565b82546001600160801b039182166101009390930a9283029190920219909116179055506040805180820182526001600160a01b0380871682526001600160401b03428116602080850191825260008981526004909152948520935184549151909216600160a01b026001600160e01b03199091169190921617179055611ce3846001612ed7565b6000818152600460205260409020549091506001600160a01b0316611d7457611d0d816001541190565b15611d745760408051808201825284516001600160a01b0390811682526020808701516001600160401b039081168285019081526000878152600490935294909120925183549451909116600160a01b026001600160e01b03199094169116179190911790555b83856001600160a01b0316876001600160a01b03167fddf252ad1be2c89b69c2b068fc378daa952ba7f163c4a11628f55a4df523b3ef60405160405180910390a45b505050505050565b6000806000611dcd8585612325565b91509150611dda81612395565b509392505050565b610f99828260405180602001604052806000815250612550565b6040805180820190915260008082526020820152611e1b826001541190565b611e7a5760405162461bcd60e51b815260206004820152602a60248201527f455243373231413a206f776e657220717565727920666f72206e6f6e657869736044820152693a32b73a103a37b5b2b760b11b60648201526084016108d4565b60007f00000000000000000000000000000000000000000000000000000000000000008310611edb57611ecd7f000000000000000000000000000000000000000000000000000000000000000084613068565b611ed8906001612ed7565b90505b825b818110611f44576000818152600460209081526040918290208251808401909352546001600160a01b038116808452600160a01b9091046001600160401b03169183019190915215611f3157949350505050565b5080611f3c8161307f565b915050611edd565b5060405162461bcd60e51b815260206004820152602f60248201527f455243373231413a20756e61626c6520746f2064657465726d696e652074686560448201526e1037bbb732b91037b3103a37b5b2b760891b60648201526084016108d4565b600080546001600160a01b038381166001600160a01b0319831681178455604051919092169283917f8be0079c531659141344cd1fd0a4f28419497f9722a3daafe3b4186f6b6457e09190a35050565b8034101561203e5760405162461bcd60e51b81526020600482015260166024820152752732b2b2103a379039b2b7321036b7b9329022aa241760511b60448201526064016108d4565b803411156119d957336108fc6120548334613068565b6040518115909202916000818181858888f19350505050158015610f99573d6000803e3d6000fd5b60006001600160a01b0384163b1561216f57604051630a85bd0160e11b81526001600160a01b0385169063150b7a02906120c0903390899088908890600401613096565b6020604051808303816000875af19250505080156120fb575060408051601f3d908101601f191682019092526120f8918101906130d3565b60015b612155573d808015612129576040519150601f19603f3d011682016040523d82523d6000602084013e61212e565b606091505b50805161214d5760405162461bcd60e51b81526004016108d490612f83565b805181602001fd5b6001600160e01b031916630a85bd0160e11b149050612173565b5060015b949350505050565b6060600e80546107e690612e36565b6060816121ae5750506040805180820190915260018152600360fc1b602082015290565b8160005b81156121d857806121c281612ebc565b91506121d19050600a83612f19565b91506121b2565b6000816001600160401b038111156121f2576121f2612bc6565b6040519080825280601f01601f19166020018201604052801561221c576020820181803683370190505b5090505b841561217357612231600183613068565b915061223e600a86612f05565b612249906030612ed7565b60f81b81838151811061225e5761225e6130f0565b60200101906001600160f81b031916908160001a905350612280600a86612f19565b9450612220565b60006001600160a01b0382166122f95760405162461bcd60e51b815260206004820152603160248201527f455243373231413a206e756d626572206d696e74656420717565727920666f7260448201527020746865207a65726f206164647265737360781b60648201526084016108d4565b506001600160a01b0316600090815260056020526040902054600160801b90046001600160801b031690565b60008082516041141561235c5760208301516040840151606085015160001a6123508782858561282a565b9450945050505061238e565b825160401415612386576020830151604084015161237b868383612917565b93509350505061238e565b506000905060025b9250929050565b60008160048111156123a9576123a9612df8565b14156123b25750565b60018160048111156123c6576123c6612df8565b14156124145760405162461bcd60e51b815260206004820152601860248201527f45434453413a20696e76616c6964207369676e6174757265000000000000000060448201526064016108d4565b600281600481111561242857612428612df8565b14156124765760405162461bcd60e51b815260206004820152601f60248201527f45434453413a20696e76616c6964207369676e6174757265206c656e6774680060448201526064016108d4565b600381600481111561248a5761248a612df8565b14156124e35760405162461bcd60e51b815260206004820152602260248201527f45434453413a20696e76616c6964207369676e6174757265202773272076616c604482015261756560f01b60648201526084016108d4565b60048160048111156124f7576124f7612df8565b14156119d95760405162461bcd60e51b815260206004820152602260248201527f45434453413a20696e76616c6964207369676e6174757265202776272076616c604482015261756560f01b60648201526084016108d4565b6001546001600160a01b0384166125b35760405162461bcd60e51b815260206004820152602160248201527f455243373231413a206d696e7420746f20746865207a65726f206164647265736044820152607360f81b60648201526084016108d4565b6125be816001541190565b1561260b5760405162461bcd60e51b815260206004820152601d60248201527f455243373231413a20746f6b656e20616c7265616479206d696e74656400000060448201526064016108d4565b7f00000000000000000000000000000000000000000000000000000000000000008311156126865760405162461bcd60e51b815260206004820152602260248201527f455243373231413a207175616e7469747920746f206d696e7420746f6f2068696044820152610ced60f31b60648201526084016108d4565b6001600160a01b0384166000908152600560209081526040918290208251808401845290546001600160801b038082168352600160801b90910416918101919091528151808301909252805190919081906126e290879061303d565b6001600160801b03168152602001858360200151612700919061303d565b6001600160801b039081169091526001600160a01b0380881660008181526005602090815260408083208751978301518716600160801b029790961696909617909455845180860186529182526001600160401b034281168386019081528883526004909552948120915182549451909516600160a01b026001600160e01b031990941694909216939093179190911790915582905b8581101561281f5760405182906001600160a01b038916906000907fddf252ad1be2c89b69c2b068fc378daa952ba7f163c4a11628f55a4df523b3ef908290a46127e3600088848861207c565b6127ff5760405162461bcd60e51b81526004016108d490612f83565b8161280981612ebc565b925050808061281790612ebc565b915050612796565b506001819055611db6565b6000807f7fffffffffffffffffffffffffffffff5d576e7357a4501ddfe92f46681b20a0831115612861575060009050600361290e565b8460ff16601b1415801561287957508460ff16601c14155b1561288a575060009050600461290e565b6040805160008082526020820180845289905260ff881692820192909252606081018690526080810185905260019060a0016020604051602081039080840390855afa1580156128de573d6000803e3d6000fd5b5050604051601f1901519150506001600160a01b0381166129075760006001925092505061290e565b9150600090505b94509492505050565b6000806001600160ff1b0383168161293460ff86901c601b612ed7565b90506129428782888561282a565b935093505050935093915050565b82805461295c90612e36565b90600052602060002090601f01602090048101928261297e57600085556129c4565b82601f1061299757805160ff19168380011785556129c4565b828001600101855582156129c4579182015b828111156129c45782518255916020019190600101906129a9565b50610f589291505b80821115610f5857600081556001016129cc565b6001600160e01b0319811681146119d957600080fd5b600060208284031215612a0857600080fd5b8135611900816129e0565b60005b83811015612a2e578181015183820152602001612a16565b83811115610ed25750506000910152565b60008151808452612a57816020860160208601612a13565b601f01601f19169290920160200192915050565b6020815260006119006020830184612a3f565b600060208284031215612a9057600080fd5b5035919050565b80356001600160a01b0381168114612aae57600080fd5b919050565b60008060408385031215612ac657600080fd5b612acf83612a97565b946020939093013593505050565b600080600060608486031215612af257600080fd5b612afb84612a97565b9250612b0960208501612a97565b9150604084013590509250925092565b60008083601f840112612b2b57600080fd5b5081356001600160401b03811115612b4257600080fd5b60208301915083602082850101111561238e57600080fd5b60008060208385031215612b6d57600080fd5b82356001600160401b03811115612b8357600080fd5b612b8f85828601612b19565b90969095509350505050565b80358015158114612aae57600080fd5b600060208284031215612bbd57600080fd5b61190082612b9b565b634e487b7160e01b600052604160045260246000fd5b60006001600160401b0380841115612bf657612bf6612bc6565b604051601f8501601f19908116603f01168101908282118183101715612c1e57612c1e612bc6565b81604052809350858152868686011115612c3757600080fd5b858560208301376000602087830101525050509392505050565b600060208284031215612c6357600080fd5b81356001600160401b03811115612c7957600080fd5b8201601f81018413612c8a57600080fd5b61217384823560208401612bdc565b600060208284031215612cab57600080fd5b81356003811061190057600080fd5b600060208284031215612ccc57600080fd5b61190082612a97565b60008060408385031215612ce857600080fd5b612cf183612a97565b9150612cff60208401612b9b565b90509250929050565b600080600060408486031215612d1d57600080fd5b8335925060208401356001600160401b03811115612d3a57600080fd5b612d4686828701612b19565b9497909650939450505050565b60008060008060808587031215612d6957600080fd5b612d7285612a97565b9350612d8060208601612a97565b92506040850135915060608501356001600160401b03811115612da257600080fd5b8501601f81018713612db357600080fd5b612dc287823560208401612bdc565b91505092959194509250565b60008060408385031215612de157600080fd5b612dea83612a97565b9150612cff60208401612a97565b634e487b7160e01b600052602160045260246000fd5b6020810160038310612e3057634e487b7160e01b600052602160045260246000fd5b91905290565b600181811c90821680612e4a57607f821691505b60208210811415612e6b57634e487b7160e01b600052602260045260246000fd5b50919050565b6020808252818101527f4f776e61626c653a2063616c6c6572206973206e6f7420746865206f776e6572604082015260600190565b634e487b7160e01b600052601160045260246000fd5b6000600019821415612ed057612ed0612ea6565b5060010190565b60008219821115612eea57612eea612ea6565b500190565b634e487b7160e01b600052601260045260246000fd5b600082612f1457612f14612eef565b500690565b600082612f2857612f28612eef565b500490565b6020808252601f908201527f5265656e7472616e637947756172643a207265656e7472616e742063616c6c00604082015260600190565b6000816000190483118215151615612f7e57612f7e612ea6565b500290565b60208082526033908201527f455243373231413a207472616e7366657220746f206e6f6e204552433732315260408201527232b1b2b4bb32b91034b6b83632b6b2b73a32b960691b606082015260800190565b60008351612fe8818460208801612a13565b835190830190612ffc818360208801612a13565b64173539b7b760d91b9101908152600501949350505050565b60006001600160801b038381169083168181101561303557613035612ea6565b039392505050565b60006001600160801b0380831681851680830382111561305f5761305f612ea6565b01949350505050565b60008282101561307a5761307a612ea6565b500390565b60008161308e5761308e612ea6565b506000190190565b6001600160a01b03858116825284166020820152604081018390526080606082018190526000906130c990830184612a3f565b9695505050505050565b6000602082840312156130e557600080fd5b8151611900816129e0565b634e487b7160e01b600052603260045260246000fdfea26469706673582212207f2e12adbfc0080183ab2d4dd46888edcd48062fb2379bd8df421639ba67fe8864736f6c634300080a0033",
  "devdoc": {
    "kind": "dev",
    "methods": {
      "approve(address,uint256)": {
        "details": "See {IERC721-approve}."
      },
      "balanceOf(address)": {
        "details": "See {IERC721-balanceOf}."
      },
      "constructor": {
        "params": {
          "collectionSize_": "NFT collection size",
          "maxBatchSize_": "Max size for ERC721A batch mint."
        }
      },
      "getApproved(uint256)": {
        "details": "See {IERC721-getApproved}."
      },
      "isApprovedForAll(address,address)": {
        "details": "See {IERC721-isApprovedForAll}."
      },
      "name()": {
        "details": "See {IERC721Metadata-name}."
      },
      "owner()": {
        "details": "Returns the address of the current owner."
      },
      "ownerOf(uint256)": {
        "details": "See {IERC721-ownerOf}."
      },
      "renounceOwnership()": {
        "details": "Leaves the contract without owner. It will not be possible to call `onlyOwner` functions anymore. Can only be called by the current owner. NOTE: Renouncing ownership will leave the contract without an owner, thereby removing any functionality that is only available to the owner."
      },
      "safeTransferFrom(address,address,uint256)": {
        "details": "See {IERC721-safeTransferFrom}."
      },
      "safeTransferFrom(address,address,uint256,bytes)": {
        "details": "See {IERC721-safeTransferFrom}."
      },
      "setApprovalForAll(address,bool)": {
        "details": "See {IERC721-setApprovalForAll}."
      },
      "supportsInterface(bytes4)": {
        "details": "See {IERC165-supportsInterface}."
      },
      "symbol()": {
        "details": "See {IERC721Metadata-symbol}."
      },
      "tokenByIndex(uint256)": {
        "details": "See {IERC721Enumerable-tokenByIndex}."
      },
      "tokenOfOwnerByIndex(address,uint256)": {
        "details": "See {IERC721Enumerable-tokenOfOwnerByIndex}. This read function is O(collectionSize). If calling from a separate contract, be sure to test gas first. It may also degrade with extremely large collection sizes (e.g >> 10000), test for your use case."
      },
      "tokenURI(uint256)": {
        "details": "See {IERC721Metadata-tokenURI}."
      },
      "totalSupply()": {
        "details": "See {IERC721Enumerable-totalSupply}."
      },
      "transferFrom(address,address,uint256)": {
        "details": "See {IERC721-transferFrom}."
      },
      "transferOwnership(address)": {
        "details": "Transfers ownership of the contract to a new account (`newOwner`). Can only be called by the current owner."
      }
    },
    "version": 1
  },
  "userdoc": {
    "kind": "user",
    "methods": {},
    "version": 1
  },
  "storageLayout": {
    "storage": [
      {
        "astId": 7,
        "contract": "contracts/DireLej.sol:DireLej",
        "label": "_owner",
        "offset": 0,
        "slot": "0",
        "type": "t_address"
      },
      {
        "astId": 1909,
        "contract": "contracts/DireLej.sol:DireLej",
        "label": "currentIndex",
        "offset": 0,
        "slot": "1",
        "type": "t_uint256"
      },
      {
        "astId": 1915,
        "contract": "contracts/DireLej.sol:DireLej",
        "label": "_name",
        "offset": 0,
        "slot": "2",
        "type": "t_string_storage"
      },
      {
        "astId": 1917,
        "contract": "contracts/DireLej.sol:DireLej",
        "label": "_symbol",
        "offset": 0,
        "slot": "3",
        "type": "t_string_storage"
      },
      {
        "astId": 1922,
        "contract": "contracts/DireLej.sol:DireLej",
        "label": "_ownerships",
        "offset": 0,
        "slot": "4",
        "type": "t_mapping(t_uint256,t_struct(TokenOwnership)1901_storage)"
      },
      {
        "astId": 1927,
        "contract": "contracts/DireLej.sol:DireLej",
        "label": "_addressData",
        "offset": 0,
        "slot": "5",
        "type": "t_mapping(t_address,t_struct(AddressData)1906_storage)"
      },
      {
        "astId": 1931,
        "contract": "contracts/DireLej.sol:DireLej",
        "label": "_tokenApprovals",
        "offset": 0,
        "slot": "6",
        "type": "t_mapping(t_uint256,t_address)"
      },
      {
        "astId": 1937,
        "contract": "contracts/DireLej.sol:DireLej",
        "label": "_operatorApprovals",
        "offset": 0,
        "slot": "7",
        "type": "t_mapping(t_address,t_mapping(t_address,t_bool))"
      },
      {
        "astId": 2880,
        "contract": "contracts/DireLej.sol:DireLej",
        "label": "nextOwnerToExplicitlySet",
        "offset": 0,
        "slot": "8",
        "type": "t_uint256"
      },
      {
        "astId": 115,
        "contract": "contracts/DireLej.sol:DireLej",
        "label": "_status",
        "offset": 0,
        "slot": "9",
        "type": "t_uint256"
      },
      {
        "astId": 1319,
        "contract": "contracts/DireLej.sol:DireLej",
        "label": "maxAmountPerWallet",
        "offset": 0,
        "slot": "10",
        "type": "t_uint256"
      },
      {
        "astId": 1322,
        "contract": "contracts/DireLej.sol:DireLej",
        "label": "publicSalePrice",
        "offset": 0,
        "slot": "11",
        "type": "t_uint256"
      },
      {
        "astId": 1325,
        "contract": "contracts/DireLej.sol:DireLej",
        "label": "presalePrice",
        "offset": 0,
        "slot": "12",
        "type": "t_uint256"
      },
      {
        "astId": 1327,
        "contract": "contracts/DireLej.sol:DireLej",
        "label": "preSaleSigner",
        "offset": 0,
        "slot": "13",
        "type": "t_address"
      },
      {
        "astId": 1329,
        "contract": "contracts/DireLej.sol:DireLej",
        "label": "_baseTokenURI",
        "offset": 0,
        "slot": "14",
        "type": "t_string_storage"
      },
      {
        "astId": 1331,
        "contract": "contracts/DireLej.sol:DireLej",
        "label": "_placeHolderURI",
        "offset": 0,
        "slot": "15",
        "type": "t_string_storage"
      },
      {
        "astId": 1333,
        "contract": "contracts/DireLej.sol:DireLej",
        "label": "reveal",
        "offset": 0,
        "slot": "16",
        "type": "t_bool"
      },
      {
        "astId": 1342,
        "contract": "contracts/DireLej.sol:DireLej",
        "label": "currentSalePhase",
        "offset": 1,
        "slot": "16",
        "type": "t_enum(SalePhase)1337"
      }
    ],
    "types": {
      "t_address": {
        "encoding": "inplace",
        "label": "address",
        "numberOfBytes": "20"
      },
      "t_bool": {
        "encoding": "inplace",
        "label": "bool",
        "numberOfBytes": "1"
      },
      "t_enum(SalePhase)1337": {
        "encoding": "inplace",
        "label": "enum DireLej.SalePhase",
        "numberOfBytes": "1"
      },
      "t_mapping(t_address,t_bool)": {
        "encoding": "mapping",
        "key": "t_address",
        "label": "mapping(address => bool)",
        "numberOfBytes": "32",
        "value": "t_bool"
      },
      "t_mapping(t_address,t_mapping(t_address,t_bool))": {
        "encoding": "mapping",
        "key": "t_address",
        "label": "mapping(address => mapping(address => bool))",
        "numberOfBytes": "32",
        "value": "t_mapping(t_address,t_bool)"
      },
      "t_mapping(t_address,t_struct(AddressData)1906_storage)": {
        "encoding": "mapping",
        "key": "t_address",
        "label": "mapping(address => struct ERC721A.AddressData)",
        "numberOfBytes": "32",
        "value": "t_struct(AddressData)1906_storage"
      },
      "t_mapping(t_uint256,t_address)": {
        "encoding": "mapping",
        "key": "t_uint256",
        "label": "mapping(uint256 => address)",
        "numberOfBytes": "32",
        "value": "t_address"
      },
      "t_mapping(t_uint256,t_struct(TokenOwnership)1901_storage)": {
        "encoding": "mapping",
        "key": "t_uint256",
        "label": "mapping(uint256 => struct ERC721A.TokenOwnership)",
        "numberOfBytes": "32",
        "value": "t_struct(TokenOwnership)1901_storage"
      },
      "t_string_storage": {
        "encoding": "bytes",
        "label": "string",
        "numberOfBytes": "32"
      },
      "t_struct(AddressData)1906_storage": {
        "encoding": "inplace",
        "label": "struct ERC721A.AddressData",
        "members": [
          {
            "astId": 1903,
            "contract": "contracts/DireLej.sol:DireLej",
            "label": "balance",
            "offset": 0,
            "slot": "0",
            "type": "t_uint128"
          },
          {
            "astId": 1905,
            "contract": "contracts/DireLej.sol:DireLej",
            "label": "numberMinted",
            "offset": 16,
            "slot": "0",
            "type": "t_uint128"
          }
        ],
        "numberOfBytes": "32"
      },
      "t_struct(TokenOwnership)1901_storage": {
        "encoding": "inplace",
        "label": "struct ERC721A.TokenOwnership",
        "members": [
          {
            "astId": 1898,
            "contract": "contracts/DireLej.sol:DireLej",
            "label": "addr",
            "offset": 0,
            "slot": "0",
            "type": "t_address"
          },
          {
            "astId": 1900,
            "contract": "contracts/DireLej.sol:DireLej",
            "label": "startTimestamp",
            "offset": 20,
            "slot": "0",
            "type": "t_uint64"
          }
        ],
        "numberOfBytes": "32"
      },
      "t_uint128": {
        "encoding": "inplace",
        "label": "uint128",
        "numberOfBytes": "16"
      },
      "t_uint256": {
        "encoding": "inplace",
        "label": "uint256",
        "numberOfBytes": "32"
      },
      "t_uint64": {
        "encoding": "inplace",
        "label": "uint64",
        "numberOfBytes": "8"
      }
    }
  }
}