{
  "address": "0x77dE544E59aAF406E1Cd13318088BAbE10564A87",
  "abi": [
    {
      "inputs": [
        {
          "internalType": "string",
          "name": "_baseURIString",
          "type": "string"
        },
        {
          "internalType": "string",
          "name": "_placeholder",
          "type": "string"
        },
        {
          "internalType": "uint256",
          "name": "maxBatchSize_",
          "type": "uint256"
        },
        {
          "internalType": "uint256",
          "name": "collectionSize_",
          "type": "uint256"
        },
        {
          "internalType": "address",
          "name": "signerAddress",
          "type": "address"
        },
        {
          "internalType": "uint256",
          "name": "currentSaleAmount_",
          "type": "uint256"
        }
      ],
      "stateMutability": "nonpayable",
      "type": "constructor"
    },
    {
      "anonymous": false,
      "inputs": [
        {
          "indexed": true,
          "internalType": "address",
          "name": "owner",
          "type": "address"
        },
        {
          "indexed": true,
          "internalType": "address",
          "name": "approved",
          "type": "address"
        },
        {
          "indexed": true,
          "internalType": "uint256",
          "name": "tokenId",
          "type": "uint256"
        }
      ],
      "name": "Approval",
      "type": "event"
    },
    {
      "anonymous": false,
      "inputs": [
        {
          "indexed": true,
          "internalType": "address",
          "name": "owner",
          "type": "address"
        },
        {
          "indexed": true,
          "internalType": "address",
          "name": "operator",
          "type": "address"
        },
        {
          "indexed": false,
          "internalType": "bool",
          "name": "approved",
          "type": "bool"
        }
      ],
      "name": "ApprovalForAll",
      "type": "event"
    },
    {
      "anonymous": false,
      "inputs": [
        {
          "indexed": true,
          "internalType": "address",
          "name": "previousOwner",
          "type": "address"
        },
        {
          "indexed": true,
          "internalType": "address",
          "name": "newOwner",
          "type": "address"
        }
      ],
      "name": "OwnershipTransferred",
      "type": "event"
    },
    {
      "anonymous": false,
      "inputs": [
        {
          "indexed": true,
          "internalType": "address",
          "name": "from",
          "type": "address"
        },
        {
          "indexed": true,
          "internalType": "address",
          "name": "to",
          "type": "address"
        },
        {
          "indexed": true,
          "internalType": "uint256",
          "name": "tokenId",
          "type": "uint256"
        }
      ],
      "name": "Transfer",
      "type": "event"
    },
    {
      "inputs": [
        {
          "internalType": "address",
          "name": "to",
          "type": "address"
        },
        {
          "internalType": "uint256",
          "name": "tokenId",
          "type": "uint256"
        }
      ],
      "name": "approve",
      "outputs": [],
      "stateMutability": "nonpayable",
      "type": "function"
    },
    {
      "inputs": [
        {
          "internalType": "address",
          "name": "owner",
          "type": "address"
        }
      ],
      "name": "balanceOf",
      "outputs": [
        {
          "internalType": "uint256",
          "name": "",
          "type": "uint256"
        }
      ],
      "stateMutability": "view",
      "type": "function"
    },
    {
      "inputs": [],
      "name": "currentSalePhase",
      "outputs": [
        {
          "internalType": "enum DireLej.SalePhase",
          "name": "",
          "type": "uint8"
        }
      ],
      "stateMutability": "view",
      "type": "function"
    },
    {
      "inputs": [
        {
          "internalType": "uint256",
          "name": "quantity",
          "type": "uint256"
        }
      ],
      "name": "devMint",
      "outputs": [],
      "stateMutability": "nonpayable",
      "type": "function"
    },
    {
      "inputs": [
        {
          "internalType": "uint256",
          "name": "tokenId",
          "type": "uint256"
        }
      ],
      "name": "getApproved",
      "outputs": [
        {
          "internalType": "address",
          "name": "",
          "type": "address"
        }
      ],
      "stateMutability": "view",
      "type": "function"
    },
    {
      "inputs": [
        {
          "internalType": "uint256",
          "name": "tokenId",
          "type": "uint256"
        }
      ],
      "name": "getOwnershipData",
      "outputs": [
        {
          "components": [
            {
              "internalType": "address",
              "name": "addr",
              "type": "address"
            },
            {
              "internalType": "uint64",
              "name": "startTimestamp",
              "type": "uint64"
            }
          ],
          "internalType": "struct ERC721A.TokenOwnership",
          "name": "",
          "type": "tuple"
        }
      ],
      "stateMutability": "view",
      "type": "function"
    },
    {
      "inputs": [
        {
          "internalType": "address",
          "name": "owner",
          "type": "address"
        },
        {
          "internalType": "address",
          "name": "operator",
          "type": "address"
        }
      ],
      "name": "isApprovedForAll",
      "outputs": [
        {
          "internalType": "bool",
          "name": "",
          "type": "bool"
        }
      ],
      "stateMutability": "view",
      "type": "function"
    },
    {
      "inputs": [],
      "name": "maxAmountPerWallet",
      "outputs": [
        {
          "internalType": "uint256",
          "name": "",
          "type": "uint256"
        }
      ],
      "stateMutability": "view",
      "type": "function"
    },
    {
      "inputs": [],
      "name": "name",
      "outputs": [
        {
          "internalType": "string",
          "name": "",
          "type": "string"
        }
      ],
      "stateMutability": "view",
      "type": "function"
    },
    {
      "inputs": [],
      "name": "nextOwnerToExplicitlySet",
      "outputs": [
        {
          "internalType": "uint256",
          "name": "",
          "type": "uint256"
        }
      ],
      "stateMutability": "view",
      "type": "function"
    },
    {
      "inputs": [
        {
          "internalType": "address",
          "name": "owner",
          "type": "address"
        }
      ],
      "name": "numberMinted",
      "outputs": [
        {
          "internalType": "uint256",
          "name": "",
          "type": "uint256"
        }
      ],
      "stateMutability": "view",
      "type": "function"
    },
    {
      "inputs": [],
      "name": "owner",
      "outputs": [
        {
          "internalType": "address",
          "name": "",
          "type": "address"
        }
      ],
      "stateMutability": "view",
      "type": "function"
    },
    {
      "inputs": [
        {
          "internalType": "uint256",
          "name": "tokenId",
          "type": "uint256"
        }
      ],
      "name": "ownerOf",
      "outputs": [
        {
          "internalType": "address",
          "name": "",
          "type": "address"
        }
      ],
      "stateMutability": "view",
      "type": "function"
    },
    {
      "inputs": [
        {
          "internalType": "uint256",
          "name": "quantity",
          "type": "uint256"
        },
        {
          "internalType": "bytes",
          "name": "signature",
          "type": "bytes"
        }
      ],
      "name": "preSaleMint",
      "outputs": [],
      "stateMutability": "payable",
      "type": "function"
    },
    {
      "inputs": [],
      "name": "presalePrice",
      "outputs": [
        {
          "internalType": "uint256",
          "name": "",
          "type": "uint256"
        }
      ],
      "stateMutability": "view",
      "type": "function"
    },
    {
      "inputs": [
        {
          "internalType": "uint256",
          "name": "quantity",
          "type": "uint256"
        }
      ],
      "name": "publicSaleMint",
      "outputs": [],
      "stateMutability": "payable",
      "type": "function"
    },
    {
      "inputs": [],
      "name": "publicSalePrice",
      "outputs": [
        {
          "internalType": "uint256",
          "name": "",
          "type": "uint256"
        }
      ],
      "stateMutability": "view",
      "type": "function"
    },
    {
      "inputs": [],
      "name": "renounceOwnership",
      "outputs": [],
      "stateMutability": "nonpayable",
      "type": "function"
    },
    {
      "inputs": [],
      "name": "reveal",
      "outputs": [
        {
          "internalType": "bool",
          "name": "",
          "type": "bool"
        }
      ],
      "stateMutability": "view",
      "type": "function"
    },
    {
      "inputs": [
        {
          "internalType": "address",
          "name": "from",
          "type": "address"
        },
        {
          "internalType": "address",
          "name": "to",
          "type": "address"
        },
        {
          "internalType": "uint256",
          "name": "tokenId",
          "type": "uint256"
        }
      ],
      "name": "safeTransferFrom",
      "outputs": [],
      "stateMutability": "nonpayable",
      "type": "function"
    },
    {
      "inputs": [
        {
          "internalType": "address",
          "name": "from",
          "type": "address"
        },
        {
          "internalType": "address",
          "name": "to",
          "type": "address"
        },
        {
          "internalType": "uint256",
          "name": "tokenId",
          "type": "uint256"
        },
        {
          "internalType": "bytes",
          "name": "_data",
          "type": "bytes"
        }
      ],
      "name": "safeTransferFrom",
      "outputs": [],
      "stateMutability": "nonpayable",
      "type": "function"
    },
    {
      "inputs": [
        {
          "internalType": "address",
          "name": "operator",
          "type": "address"
        },
        {
          "internalType": "bool",
          "name": "approved",
          "type": "bool"
        }
      ],
      "name": "setApprovalForAll",
      "outputs": [],
      "stateMutability": "nonpayable",
      "type": "function"
    },
    {
      "inputs": [
        {
          "internalType": "string",
          "name": "baseURI",
          "type": "string"
        }
      ],
      "name": "setBaseURI",
      "outputs": [],
      "stateMutability": "nonpayable",
      "type": "function"
    },
    {
      "inputs": [
        {
          "internalType": "uint256",
          "name": "_currentSaleAmount",
          "type": "uint256"
        }
      ],
      "name": "setCurrentSaleAmount",
      "outputs": [],
      "stateMutability": "nonpayable",
      "type": "function"
    },
    {
      "inputs": [
        {
          "internalType": "string",
          "name": "_uri",
          "type": "string"
        }
      ],
      "name": "setPlaceHolderURI",
      "outputs": [],
      "stateMutability": "nonpayable",
      "type": "function"
    },
    {
      "inputs": [
        {
          "internalType": "address",
          "name": "signer",
          "type": "address"
        }
      ],
      "name": "setPreSaleSigner",
      "outputs": [],
      "stateMutability": "nonpayable",
      "type": "function"
    },
    {
      "inputs": [
        {
          "internalType": "uint256",
          "name": "_price",
          "type": "uint256"
        }
      ],
      "name": "setPresalePrice",
      "outputs": [],
      "stateMutability": "nonpayable",
      "type": "function"
    },
    {
      "inputs": [
        {
          "internalType": "uint256",
          "name": "_price",
          "type": "uint256"
        }
      ],
      "name": "setPublicSalePrice",
      "outputs": [],
      "stateMutability": "nonpayable",
      "type": "function"
    },
    {
      "inputs": [
        {
          "internalType": "bool",
          "name": "value",
          "type": "bool"
        }
      ],
      "name": "setReveal",
      "outputs": [],
      "stateMutability": "nonpayable",
      "type": "function"
    },
    {
      "inputs": [
        {
          "internalType": "enum DireLej.SalePhase",
          "name": "phase",
          "type": "uint8"
        }
      ],
      "name": "setSaleMode",
      "outputs": [],
      "stateMutability": "nonpayable",
      "type": "function"
    },
    {
      "inputs": [
        {
          "internalType": "uint256",
          "name": "_limit",
          "type": "uint256"
        }
      ],
      "name": "setWalletLimit",
      "outputs": [],
      "stateMutability": "nonpayable",
      "type": "function"
    },
    {
      "inputs": [
        {
          "internalType": "bytes4",
          "name": "interfaceId",
          "type": "bytes4"
        }
      ],
      "name": "supportsInterface",
      "outputs": [
        {
          "internalType": "bool",
          "name": "",
          "type": "bool"
        }
      ],
      "stateMutability": "view",
      "type": "function"
    },
    {
      "inputs": [],
      "name": "symbol",
      "outputs": [
        {
          "internalType": "string",
          "name": "",
          "type": "string"
        }
      ],
      "stateMutability": "view",
      "type": "function"
    },
    {
      "inputs": [
        {
          "internalType": "uint256",
          "name": "index",
          "type": "uint256"
        }
      ],
      "name": "tokenByIndex",
      "outputs": [
        {
          "internalType": "uint256",
          "name": "",
          "type": "uint256"
        }
      ],
      "stateMutability": "view",
      "type": "function"
    },
    {
      "inputs": [
        {
          "internalType": "address",
          "name": "owner",
          "type": "address"
        },
        {
          "internalType": "uint256",
          "name": "index",
          "type": "uint256"
        }
      ],
      "name": "tokenOfOwnerByIndex",
      "outputs": [
        {
          "internalType": "uint256",
          "name": "",
          "type": "uint256"
        }
      ],
      "stateMutability": "view",
      "type": "function"
    },
    {
      "inputs": [
        {
          "internalType": "uint256",
          "name": "tokenId",
          "type": "uint256"
        }
      ],
      "name": "tokenURI",
      "outputs": [
        {
          "internalType": "string",
          "name": "",
          "type": "string"
        }
      ],
      "stateMutability": "view",
      "type": "function"
    },
    {
      "inputs": [],
      "name": "totalSupply",
      "outputs": [
        {
          "internalType": "uint256",
          "name": "",
          "type": "uint256"
        }
      ],
      "stateMutability": "view",
      "type": "function"
    },
    {
      "inputs": [
        {
          "internalType": "address",
          "name": "from",
          "type": "address"
        },
        {
          "internalType": "address",
          "name": "to",
          "type": "address"
        },
        {
          "internalType": "uint256",
          "name": "tokenId",
          "type": "uint256"
        }
      ],
      "name": "transferFrom",
      "outputs": [],
      "stateMutability": "nonpayable",
      "type": "function"
    },
    {
      "inputs": [
        {
          "internalType": "address",
          "name": "newOwner",
          "type": "address"
        }
      ],
      "name": "transferOwnership",
      "outputs": [],
      "stateMutability": "nonpayable",
      "type": "function"
    },
    {
      "inputs": [
        {
          "internalType": "bytes",
          "name": "signature",
          "type": "bytes"
        }
      ],
      "name": "verifySigner",
      "outputs": [],
      "stateMutability": "view",
      "type": "function"
    },
    {
      "inputs": [],
      "name": "withdrawMoney",
      "outputs": [],
      "stateMutability": "nonpayable",
      "type": "function"
    }
  ],
  "transactionHash": "0x19f28ab636ed7d71c65f19ffe336a64f3c088a762eea5ee8f3e0d660c8385ff5",
  "args": [
    "https://kanessanft.mypinata.cloud/ipfs/QmbEaPLaoYJzDYih3q15eMCeEdU5rCFRXsDsuM4Ki9N1DN/",
    "",
    5,
    3333,
    "0xeA860Ae1b9aEB06b674664c5496D2F8Ee7C4BBFA",
    333
  ],
  "numDeployments": 2,
  "solcInputHash": "4673b276f608e02acf385badb28687e9",
  "bytecode": "0x60c0604052600180805560006008556706f05b59d3b20000600b556702c68af0bb140000600c556010805460ff1990811690921790556012805490911690553480156200004b57600080fd5b50604051620036c6380380620036c68339810160408190526200006e916200046c565b604051806040016040528060078152602001662234b932a632b560c91b815250604051806040016040528060048152602001632229262560e11b8152508585620000c7620000c1620002a560201b60201c565b620002a9565b60008111620001345760405162461bcd60e51b815260206004820152602e60248201527f455243373231413a20636f6c6c656374696f6e206d757374206861766520612060448201526d6e6f6e7a65726f20737570706c7960901b60648201526084015b60405180910390fd5b60008211620001965760405162461bcd60e51b815260206004820152602760248201527f455243373231413a206d61782062617463682073697a65206d757374206265206044820152666e6f6e7a65726f60c81b60648201526084016200012b565b8351620001ab906002906020870190620002f9565b508251620001c1906003906020860190620002f9565b5060a091909152608052505060016009558551620001e790600e906020890190620002f9565b508451620001fd90600f906020880190620002f9565b50600a849055600d80546001600160a01b0319166001600160a01b03841617905582811115620002965760405162461bcd60e51b815260206004820152603560248201527f43757272656e742053616c6520416d6f756e742073686f756c64206c6573732060448201527f7468616e20636f6c6c656374696f6e2073697a652e000000000000000000000060648201526084016200012b565b60115550620005539350505050565b3390565b600080546001600160a01b038381166001600160a01b0319831681178455604051919092169283917f8be0079c531659141344cd1fd0a4f28419497f9722a3daafe3b4186f6b6457e09190a35050565b828054620003079062000516565b90600052602060002090601f0160209004810192826200032b576000855562000376565b82601f106200034657805160ff191683800117855562000376565b8280016001018555821562000376579182015b828111156200037657825182559160200191906001019062000359565b506200038492915062000388565b5090565b5b8082111562000384576000815560010162000389565b634e487b7160e01b600052604160045260246000fd5b600082601f830112620003c757600080fd5b81516001600160401b0380821115620003e457620003e46200039f565b604051601f8301601f19908116603f011681019082821181831017156200040f576200040f6200039f565b816040528381526020925086838588010111156200042c57600080fd5b600091505b8382101562000450578582018301518183018401529082019062000431565b83821115620004625760008385830101525b9695505050505050565b60008060008060008060c087890312156200048657600080fd5b86516001600160401b03808211156200049e57600080fd5b620004ac8a838b01620003b5565b97506020890151915080821115620004c357600080fd5b50620004d289828a01620003b5565b604089015160608a015160808b0151929850909650945090506001600160a01b03811681146200050157600080fd5b8092505060a087015190509295509295509295565b600181811c908216806200052b57607f821691505b602082108114156200054d57634e487b7160e01b600052602260045260246000fd5b50919050565b60805160a051613126620005a060003960008181610da001528181610dcb01528181610e5601528181610e8301528181611e6801528181611e9201526125f70152600050506131266000f3fe6080604052600436106102455760003560e01c8063715018a611610139578063a475b5dd116100b6578063d7224ba01161007a578063d7224ba0146106aa578063dc33e681146106c0578063e985e9c5146106e0578063f1d5f51714610729578063f2fde38b14610749578063f53da97e1461076957600080fd5b8063a475b5dd14610628578063ac44600214610642578063b3ab66b014610657578063b88d4fde1461066a578063c87b56dd1461068a57600080fd5b806395d89b41116100fd57806395d89b41146105aa5780639b6860c8146105bf5780639f1c9b05146105d5578063a22cb465146105f5578063a272284a1461061557600080fd5b8063715018a6146104ea57806377a73a08146104ff578063791a25191461051f5780638da5cb5b1461053f5780639231ab2a1461055d57600080fd5b80633549345e116101c75780634f6ccce71161018b5780634f6ccce71461044a57806355f804b31461046a5780636352211e1461048a578063689e1395146104aa57806370a08231146104ca57600080fd5b80633549345e146103b457806336db7129146103d4578063375a069a146103ea57806342842e0e1461040a57806345464a3e1461042a57600080fd5b806318160ddd1161020e57806318160ddd1461031f57806323b872dd14610334578063278e25ed146103545780632a3f300c146103745780632f745c591461039457600080fd5b80620e7fa81461024a57806301ffc9a71461027357806306fdde03146102a3578063081812fc146102c5578063095ea7b3146102fd575b600080fd5b34801561025657600080fd5b50610260600c5481565b6040519081526020015b60405180910390f35b34801561027f57600080fd5b5061029361028e3660046129e0565b610790565b604051901515815260200161026a565b3480156102af57600080fd5b506102b86107fd565b60405161026a9190612a55565b3480156102d157600080fd5b506102e56102e0366004612a68565b61088f565b6040516001600160a01b03909116815260200161026a565b34801561030957600080fd5b5061031d610318366004612a9d565b61091f565b005b34801561032b57600080fd5b50600154610260565b34801561034057600080fd5b5061031d61034f366004612ac7565b610a37565b34801561036057600080fd5b5061031d61036f366004612b44565b610a42565b34801561038057600080fd5b5061031d61038f366004612b95565b610b36565b3480156103a057600080fd5b506102606103af366004612a9d565b610b73565b3480156103c057600080fd5b5061031d6103cf366004612a68565b610ceb565b3480156103e057600080fd5b50610260600a5481565b3480156103f657600080fd5b5061031d610405366004612a68565b610d1a565b34801561041657600080fd5b5061031d610425366004612ac7565b610ee0565b34801561043657600080fd5b5061031d610445366004612a68565b610efb565b34801561045657600080fd5b50610260610465366004612a68565b610f2a565b34801561047657600080fd5b5061031d610485366004612c3b565b610f93565b34801561049657600080fd5b506102e56104a5366004612a68565b610fd4565b3480156104b657600080fd5b5061031d6104c5366004612c83565b610fe6565b3480156104d657600080fd5b506102606104e5366004612ca4565b6110a0565b3480156104f657600080fd5b5061031d611131565b34801561050b57600080fd5b5061031d61051a366004612c3b565b611167565b34801561052b57600080fd5b5061031d61053a366004612a68565b6111a4565b34801561054b57600080fd5b506000546001600160a01b03166102e5565b34801561056957600080fd5b5061057d610578366004612a68565b6111d3565b6040805182516001600160a01b031681526020928301516001600160401b0316928101929092520161026a565b3480156105b657600080fd5b506102b86111f0565b3480156105cb57600080fd5b50610260600b5481565b3480156105e157600080fd5b5061031d6105f0366004612ca4565b6111ff565b34801561060157600080fd5b5061031d610610366004612cbf565b61124b565b61031d610623366004612cf2565b611310565b34801561063457600080fd5b506010546102939060ff1681565b34801561064e57600080fd5b5061031d6114c9565b61031d610665366004612a68565b6115ae565b34801561067657600080fd5b5061031d610685366004612d3d565b611755565b34801561069657600080fd5b506102b86106a5366004612a68565b611788565b3480156106b657600080fd5b5061026060085481565b3480156106cc57600080fd5b506102606106db366004612ca4565b6118f1565b3480156106ec57600080fd5b506102936106fb366004612db8565b6001600160a01b03918216600090815260076020908152604080832093909416825291909152205460ff1690565b34801561073557600080fd5b5061031d610744366004612a68565b6118fc565b34801561075557600080fd5b5061031d610764366004612ca4565b61192b565b34801561077557600080fd5b506012546107839060ff1681565b60405161026a9190612df8565b60006001600160e01b031982166380ac58cd60e01b14806107c157506001600160e01b03198216635b5e139f60e01b145b806107dc57506001600160e01b0319821663780e9d6360e01b145b806107f757506301ffc9a760e01b6001600160e01b03198316145b92915050565b60606002805461080c90612e20565b80601f016020809104026020016040519081016040528092919081815260200182805461083890612e20565b80156108855780601f1061085a57610100808354040283529160200191610885565b820191906000526020600020905b81548152906001019060200180831161086857829003601f168201915b5050505050905090565b600061089c826001541190565b6109035760405162461bcd60e51b815260206004820152602d60248201527f455243373231413a20617070726f76656420717565727920666f72206e6f6e6560448201526c3c34b9ba32b73a103a37b5b2b760991b60648201526084015b60405180910390fd5b506000908152600660205260409020546001600160a01b031690565b600061092a82610fd4565b9050806001600160a01b0316836001600160a01b031614156109995760405162461bcd60e51b815260206004820152602260248201527f455243373231413a20617070726f76616c20746f2063757272656e74206f776e60448201526132b960f11b60648201526084016108fa565b336001600160a01b03821614806109b557506109b581336106fb565b610a275760405162461bcd60e51b815260206004820152603960248201527f455243373231413a20617070726f76652063616c6c6572206973206e6f74206f60448201527f776e6572206e6f7220617070726f76656420666f7220616c6c0000000000000060648201526084016108fa565b610a328383836119c6565b505050565b610a32838383611a22565b604080513360601b6bffffffffffffffffffffffff1916602080830191909152825160148184030181526034830184528051908201207f19457468657265756d205369676e6564204d6573736167653a0a3332000000006054840152607080840182905284518085039091018152609090930190935281519101206000610aff8286868080601f016020809104026020016040519081016040528093929190818152602001838380828437600092019190915250611da892505050565b90506001600160a01b03811615801590610b265750600d546001600160a01b038281169116145b610b2f57600080fd5b5050505050565b6000546001600160a01b03163314610b605760405162461bcd60e51b81526004016108fa90612e5b565b6010805460ff1916911515919091179055565b6000610b7e836110a0565b8210610bd75760405162461bcd60e51b815260206004820152602260248201527f455243373231413a206f776e657220696e646578206f7574206f6620626f756e604482015261647360f01b60648201526084016108fa565b6000610be260015490565b905060008060005b83811015610c8b576000818152600460209081526040918290208251808401909352546001600160a01b038116808452600160a01b9091046001600160401b03169183019190915215610c3c57805192505b876001600160a01b0316836001600160a01b03161415610c785786841415610c6a575093506107f792505050565b83610c7481612ea6565b9450505b5080610c8381612ea6565b915050610bea565b5060405162461bcd60e51b815260206004820152602e60248201527f455243373231413a20756e61626c6520746f2067657420746f6b656e206f662060448201526d0deeedccae440c4f240d2dcc8caf60931b60648201526084016108fa565b6000546001600160a01b03163314610d155760405162461bcd60e51b81526004016108fa90612e5b565b600c55565b6000546001600160a01b03163314610d445760405162461bcd60e51b81526004016108fa90612e5b565b60115481610d5160015490565b610d5b9190612ec1565b1115610d9e5760405162461bcd60e51b815260206004820152601260248201527145786365656473204d617820537570706c7960701b60448201526064016108fa565b7f0000000000000000000000000000000000000000000000000000000000000000811115610e5257610df07f000000000000000000000000000000000000000000000000000000000000000082612eef565b15610e525760405162461bcd60e51b815260206004820152602c60248201527f63616e206f6e6c79206d696e742061206d756c7469706c65206f66207468652060448201526b6d6178426174636853697a6560a01b60648201526084016108fa565b60007f00000000000000000000000000000000000000000000000000000000000000008211610e815781610ea3565b7f00000000000000000000000000000000000000000000000000000000000000005b90506000610eb18284612f03565b905060005b81811015610eda57610ec83384611dcc565b80610ed281612ea6565b915050610eb6565b50505050565b610a3283838360405180602001604052806000815250611755565b6000546001600160a01b03163314610f255760405162461bcd60e51b81526004016108fa90612e5b565b601155565b6000610f3560015490565b8210610f8f5760405162461bcd60e51b815260206004820152602360248201527f455243373231413a20676c6f62616c20696e646578206f7574206f6620626f756044820152626e647360e81b60648201526084016108fa565b5090565b6000546001600160a01b03163314610fbd5760405162461bcd60e51b81526004016108fa90612e5b565b8051610fd090600e90602084019061293a565b5050565b6000610fdf82611de6565b5192915050565b6000546001600160a01b031633146110105760405162461bcd60e51b81526004016108fa90612e5b565b80600281111561102257611022612de2565b60125460ff16600281111561103957611039612de2565b14156110795760405162461bcd60e51b815260206004820152600f60248201526e20b63932b0b23c9030b1ba34bb329760891b60448201526064016108fa565b6012805482919060ff1916600183600281111561109857611098612de2565b021790555050565b60006001600160a01b03821661110c5760405162461bcd60e51b815260206004820152602b60248201527f455243373231413a2062616c616e636520717565727920666f7220746865207a60448201526a65726f206164647265737360a81b60648201526084016108fa565b506001600160a01b03166000908152600560205260409020546001600160801b031690565b6000546001600160a01b0316331461115b5760405162461bcd60e51b81526004016108fa90612e5b565b6111656000611f8f565b565b6000546001600160a01b031633146111915760405162461bcd60e51b81526004016108fa90612e5b565b8051610fd090600f90602084019061293a565b6000546001600160a01b031633146111ce5760405162461bcd60e51b81526004016108fa90612e5b565b600b55565b60408051808201909152600080825260208201526107f782611de6565b60606003805461080c90612e20565b6000546001600160a01b031633146112295760405162461bcd60e51b81526004016108fa90612e5b565b600d80546001600160a01b0319166001600160a01b0392909216919091179055565b6001600160a01b0382163314156112a45760405162461bcd60e51b815260206004820152601a60248201527f455243373231413a20617070726f766520746f2063616c6c657200000000000060448201526064016108fa565b3360008181526007602090815260408083206001600160a01b03871680855290835292819020805460ff191686151590811790915590519081529192917f17307eab39ab6107e8899845ad3d59bd9653f200f220920489ca2b5937696c31910160405180910390a35050565b32331461135f5760405162461bcd60e51b815260206004820152601e60248201527f5468652063616c6c657220697320616e6f7468657220636f6e7472616374000060448201526064016108fa565b600160125460ff16600281111561137857611378612de2565b146113be5760405162461bcd60e51b8152602060048201526016602482015275283932b9b0b6329034b9903737ba1030b1ba34bb329760511b60448201526064016108fa565b600260095414156113e15760405162461bcd60e51b81526004016108fa90612f17565b6002600955601154836113f360015490565b6113fd9190612ec1565b11156114405760405162461bcd60e51b815260206004820152601260248201527172656163686564206d617820737570706c7960701b60448201526064016108fa565b600a548361144d336118f1565b6114579190612ec1565b11156114955760405162461bcd60e51b815260206004820152600d60248201526c115e18d959591cc81b1a5b5a5d609a1b60448201526064016108fa565b61149f8282610a42565b6114a93384611dcc565b6114bf83600c546114ba9190612f4e565b611fdf565b5050600160095550565b6000546001600160a01b031633146114f35760405162461bcd60e51b81526004016108fa90612e5b565b600260095414156115165760405162461bcd60e51b81526004016108fa90612f17565b6002600955604051600090339047908381818185875af1925050503d806000811461155d576040519150601f19603f3d011682016040523d82523d6000602084013e611562565b606091505b50509050806115a65760405162461bcd60e51b815260206004820152601060248201526f2a3930b739b332b9103330b4b632b21760811b60448201526064016108fa565b506001600955565b3233146115fd5760405162461bcd60e51b815260206004820152601e60248201527f5468652063616c6c657220697320616e6f7468657220636f6e7472616374000060448201526064016108fa565b600260125460ff16600281111561161657611616612de2565b146116635760405162461bcd60e51b815260206004820152601860248201527f5075626c69632073616c65206973206e6f74206c6976652e000000000000000060448201526064016108fa565b600260095414156116865760405162461bcd60e51b81526004016108fa90612f17565b60026009556011548161169860015490565b6116a29190612ec1565b11156116e55760405162461bcd60e51b815260206004820152601260248201527172656163686564206d617820737570706c7960701b60448201526064016108fa565b600a54816116f2336118f1565b6116fc9190612ec1565b111561173a5760405162461bcd60e51b815260206004820152600d60248201526c115e18d959591cc81b1a5b5a5d609a1b60448201526064016108fa565b6117443382611dcc565b6115a681600b546114ba9190612f4e565b611760848484611a22565b61176c84848484612066565b610eda5760405162461bcd60e51b81526004016108fa90612f6d565b6060611795826001541190565b6117f95760405162461bcd60e51b815260206004820152602f60248201527f4552433732314d657461646174613a2055524920717565727920666f72206e6f60448201526e3732bc34b9ba32b73a103a37b5b2b760891b60648201526084016108fa565b60105460ff1661189557600f805461181090612e20565b80601f016020809104026020016040519081016040528092919081815260200182805461183c90612e20565b80156118895780601f1061185e57610100808354040283529160200191611889565b820191906000526020600020905b81548152906001019060200180831161186c57829003601f168201915b50505050509050919050565b600061189f612165565b905060008151116118bf57604051806020016040528060008152506118ea565b806118c984612174565b6040516020016118da929190612fc0565b6040516020818303038152906040525b9392505050565b60006107f782612271565b6000546001600160a01b031633146119265760405162461bcd60e51b81526004016108fa90612e5b565b600a55565b6000546001600160a01b031633146119555760405162461bcd60e51b81526004016108fa90612e5b565b6001600160a01b0381166119ba5760405162461bcd60e51b815260206004820152602660248201527f4f776e61626c653a206e6577206f776e657220697320746865207a65726f206160448201526564647265737360d01b60648201526084016108fa565b6119c381611f8f565b50565b60008281526006602052604080822080546001600160a01b0319166001600160a01b0387811691821790925591518593918516917f8c5be1e5ebec7d5bd14f71427d1e84f3dd0314c0f7b2291e5b200ac8c7c3b92591a4505050565b6000611a2d82611de6565b80519091506000906001600160a01b0316336001600160a01b03161480611a64575033611a598461088f565b6001600160a01b0316145b80611a7657508151611a7690336106fb565b905080611ae05760405162461bcd60e51b815260206004820152603260248201527f455243373231413a207472616e736665722063616c6c6572206973206e6f74206044820152711bdddb995c881b9bdc88185c1c1c9bdd995960721b60648201526084016108fa565b846001600160a01b031682600001516001600160a01b031614611b545760405162461bcd60e51b815260206004820152602660248201527f455243373231413a207472616e736665722066726f6d20696e636f72726563746044820152651037bbb732b960d11b60648201526084016108fa565b6001600160a01b038416611bb85760405162461bcd60e51b815260206004820152602560248201527f455243373231413a207472616e7366657220746f20746865207a65726f206164604482015264647265737360d81b60648201526084016108fa565b611bc860008484600001516119c6565b6001600160a01b0385166000908152600560205260408120805460019290611bfa9084906001600160801b0316612fff565b82546101009290920a6001600160801b038181021990931691831602179091556001600160a01b03861660009081526005602052604081208054600194509092611c4691859116613027565b82546001600160801b039182166101009390930a9283029190920219909116179055506040805180820182526001600160a01b0380871682526001600160401b03428116602080850191825260008981526004909152948520935184549151909216600160a01b026001600160e01b03199091169190921617179055611ccd846001612ec1565b6000818152600460205260409020549091506001600160a01b0316611d5e57611cf7816001541190565b15611d5e5760408051808201825284516001600160a01b0390811682526020808701516001600160401b039081168285019081526000878152600490935294909120925183549451909116600160a01b026001600160e01b03199094169116179190911790555b83856001600160a01b0316876001600160a01b03167fddf252ad1be2c89b69c2b068fc378daa952ba7f163c4a11628f55a4df523b3ef60405160405180910390a45b505050505050565b6000806000611db7858561230f565b91509150611dc48161237f565b509392505050565b610fd082826040518060200160405280600081525061253a565b6040805180820190915260008082526020820152611e05826001541190565b611e645760405162461bcd60e51b815260206004820152602a60248201527f455243373231413a206f776e657220717565727920666f72206e6f6e657869736044820152693a32b73a103a37b5b2b760b11b60648201526084016108fa565b60007f00000000000000000000000000000000000000000000000000000000000000008310611ec557611eb77f000000000000000000000000000000000000000000000000000000000000000084613052565b611ec2906001612ec1565b90505b825b818110611f2e576000818152600460209081526040918290208251808401909352546001600160a01b038116808452600160a01b9091046001600160401b03169183019190915215611f1b57949350505050565b5080611f2681613069565b915050611ec7565b5060405162461bcd60e51b815260206004820152602f60248201527f455243373231413a20756e61626c6520746f2064657465726d696e652074686560448201526e1037bbb732b91037b3103a37b5b2b760891b60648201526084016108fa565b600080546001600160a01b038381166001600160a01b0319831681178455604051919092169283917f8be0079c531659141344cd1fd0a4f28419497f9722a3daafe3b4186f6b6457e09190a35050565b803410156120285760405162461bcd60e51b81526020600482015260166024820152752732b2b2103a379039b2b7321036b7b9329022aa241760511b60448201526064016108fa565b803411156119c357336108fc61203e8334613052565b6040518115909202916000818181858888f19350505050158015610fd0573d6000803e3d6000fd5b60006001600160a01b0384163b1561215957604051630a85bd0160e11b81526001600160a01b0385169063150b7a02906120aa903390899088908890600401613080565b6020604051808303816000875af19250505080156120e5575060408051601f3d908101601f191682019092526120e2918101906130bd565b60015b61213f573d808015612113576040519150601f19603f3d011682016040523d82523d6000602084013e612118565b606091505b5080516121375760405162461bcd60e51b81526004016108fa90612f6d565b805181602001fd5b6001600160e01b031916630a85bd0160e11b14905061215d565b5060015b949350505050565b6060600e805461080c90612e20565b6060816121985750506040805180820190915260018152600360fc1b602082015290565b8160005b81156121c257806121ac81612ea6565b91506121bb9050600a83612f03565b915061219c565b6000816001600160401b038111156121dc576121dc612bb0565b6040519080825280601f01601f191660200182016040528015612206576020820181803683370190505b5090505b841561215d5761221b600183613052565b9150612228600a86612eef565b612233906030612ec1565b60f81b818381518110612248576122486130da565b60200101906001600160f81b031916908160001a90535061226a600a86612f03565b945061220a565b60006001600160a01b0382166122e35760405162461bcd60e51b815260206004820152603160248201527f455243373231413a206e756d626572206d696e74656420717565727920666f7260448201527020746865207a65726f206164647265737360781b60648201526084016108fa565b506001600160a01b0316600090815260056020526040902054600160801b90046001600160801b031690565b6000808251604114156123465760208301516040840151606085015160001a61233a87828585612814565b94509450505050612378565b8251604014156123705760208301516040840151612365868383612901565b935093505050612378565b506000905060025b9250929050565b600081600481111561239357612393612de2565b141561239c5750565b60018160048111156123b0576123b0612de2565b14156123fe5760405162461bcd60e51b815260206004820152601860248201527f45434453413a20696e76616c6964207369676e6174757265000000000000000060448201526064016108fa565b600281600481111561241257612412612de2565b14156124605760405162461bcd60e51b815260206004820152601f60248201527f45434453413a20696e76616c6964207369676e6174757265206c656e6774680060448201526064016108fa565b600381600481111561247457612474612de2565b14156124cd5760405162461bcd60e51b815260206004820152602260248201527f45434453413a20696e76616c6964207369676e6174757265202773272076616c604482015261756560f01b60648201526084016108fa565b60048160048111156124e1576124e1612de2565b14156119c35760405162461bcd60e51b815260206004820152602260248201527f45434453413a20696e76616c6964207369676e6174757265202776272076616c604482015261756560f01b60648201526084016108fa565b6001546001600160a01b03841661259d5760405162461bcd60e51b815260206004820152602160248201527f455243373231413a206d696e7420746f20746865207a65726f206164647265736044820152607360f81b60648201526084016108fa565b6125a8816001541190565b156125f55760405162461bcd60e51b815260206004820152601d60248201527f455243373231413a20746f6b656e20616c7265616479206d696e74656400000060448201526064016108fa565b7f00000000000000000000000000000000000000000000000000000000000000008311156126705760405162461bcd60e51b815260206004820152602260248201527f455243373231413a207175616e7469747920746f206d696e7420746f6f2068696044820152610ced60f31b60648201526084016108fa565b6001600160a01b0384166000908152600560209081526040918290208251808401845290546001600160801b038082168352600160801b90910416918101919091528151808301909252805190919081906126cc908790613027565b6001600160801b031681526020018583602001516126ea9190613027565b6001600160801b039081169091526001600160a01b0380881660008181526005602090815260408083208751978301518716600160801b029790961696909617909455845180860186529182526001600160401b034281168386019081528883526004909552948120915182549451909516600160a01b026001600160e01b031990941694909216939093179190911790915582905b858110156128095760405182906001600160a01b038916906000907fddf252ad1be2c89b69c2b068fc378daa952ba7f163c4a11628f55a4df523b3ef908290a46127cd6000888488612066565b6127e95760405162461bcd60e51b81526004016108fa90612f6d565b816127f381612ea6565b925050808061280190612ea6565b915050612780565b506001819055611da0565b6000807f7fffffffffffffffffffffffffffffff5d576e7357a4501ddfe92f46681b20a083111561284b57506000905060036128f8565b8460ff16601b1415801561286357508460ff16601c14155b1561287457506000905060046128f8565b6040805160008082526020820180845289905260ff881692820192909252606081018690526080810185905260019060a0016020604051602081039080840390855afa1580156128c8573d6000803e3d6000fd5b5050604051601f1901519150506001600160a01b0381166128f1576000600192509250506128f8565b9150600090505b94509492505050565b6000806001600160ff1b0383168161291e60ff86901c601b612ec1565b905061292c87828885612814565b935093505050935093915050565b82805461294690612e20565b90600052602060002090601f01602090048101928261296857600085556129ae565b82601f1061298157805160ff19168380011785556129ae565b828001600101855582156129ae579182015b828111156129ae578251825591602001919060010190612993565b50610f8f9291505b80821115610f8f57600081556001016129b6565b6001600160e01b0319811681146119c357600080fd5b6000602082840312156129f257600080fd5b81356118ea816129ca565b60005b83811015612a18578181015183820152602001612a00565b83811115610eda5750506000910152565b60008151808452612a418160208601602086016129fd565b601f01601f19169290920160200192915050565b6020815260006118ea6020830184612a29565b600060208284031215612a7a57600080fd5b5035919050565b80356001600160a01b0381168114612a9857600080fd5b919050565b60008060408385031215612ab057600080fd5b612ab983612a81565b946020939093013593505050565b600080600060608486031215612adc57600080fd5b612ae584612a81565b9250612af360208501612a81565b9150604084013590509250925092565b60008083601f840112612b1557600080fd5b5081356001600160401b03811115612b2c57600080fd5b60208301915083602082850101111561237857600080fd5b60008060208385031215612b5757600080fd5b82356001600160401b03811115612b6d57600080fd5b612b7985828601612b03565b90969095509350505050565b80358015158114612a9857600080fd5b600060208284031215612ba757600080fd5b6118ea82612b85565b634e487b7160e01b600052604160045260246000fd5b60006001600160401b0380841115612be057612be0612bb0565b604051601f8501601f19908116603f01168101908282118183101715612c0857612c08612bb0565b81604052809350858152868686011115612c2157600080fd5b858560208301376000602087830101525050509392505050565b600060208284031215612c4d57600080fd5b81356001600160401b03811115612c6357600080fd5b8201601f81018413612c7457600080fd5b61215d84823560208401612bc6565b600060208284031215612c9557600080fd5b8135600381106118ea57600080fd5b600060208284031215612cb657600080fd5b6118ea82612a81565b60008060408385031215612cd257600080fd5b612cdb83612a81565b9150612ce960208401612b85565b90509250929050565b600080600060408486031215612d0757600080fd5b8335925060208401356001600160401b03811115612d2457600080fd5b612d3086828701612b03565b9497909650939450505050565b60008060008060808587031215612d5357600080fd5b612d5c85612a81565b9350612d6a60208601612a81565b92506040850135915060608501356001600160401b03811115612d8c57600080fd5b8501601f81018713612d9d57600080fd5b612dac87823560208401612bc6565b91505092959194509250565b60008060408385031215612dcb57600080fd5b612dd483612a81565b9150612ce960208401612a81565b634e487b7160e01b600052602160045260246000fd5b6020810160038310612e1a57634e487b7160e01b600052602160045260246000fd5b91905290565b600181811c90821680612e3457607f821691505b60208210811415612e5557634e487b7160e01b600052602260045260246000fd5b50919050565b6020808252818101527f4f776e61626c653a2063616c6c6572206973206e6f7420746865206f776e6572604082015260600190565b634e487b7160e01b600052601160045260246000fd5b6000600019821415612eba57612eba612e90565b5060010190565b60008219821115612ed457612ed4612e90565b500190565b634e487b7160e01b600052601260045260246000fd5b600082612efe57612efe612ed9565b500690565b600082612f1257612f12612ed9565b500490565b6020808252601f908201527f5265656e7472616e637947756172643a207265656e7472616e742063616c6c00604082015260600190565b6000816000190483118215151615612f6857612f68612e90565b500290565b60208082526033908201527f455243373231413a207472616e7366657220746f206e6f6e204552433732315260408201527232b1b2b4bb32b91034b6b83632b6b2b73a32b960691b606082015260800190565b60008351612fd28184602088016129fd565b835190830190612fe68183602088016129fd565b64173539b7b760d91b9101908152600501949350505050565b60006001600160801b038381169083168181101561301f5761301f612e90565b039392505050565b60006001600160801b0380831681851680830382111561304957613049612e90565b01949350505050565b60008282101561306457613064612e90565b500390565b60008161307857613078612e90565b506000190190565b6001600160a01b03858116825284166020820152604081018390526080606082018190526000906130b390830184612a29565b9695505050505050565b6000602082840312156130cf57600080fd5b81516118ea816129ca565b634e487b7160e01b600052603260045260246000fdfea2646970667358221220019cd4a7a4edc101234f636865806527bcbda3ac9975e3ad158ebc487c2839ff64736f6c634300080a0033",
  "devdoc": {
    "kind": "dev",
    "methods": {
      "approve(address,uint256)": {
        "details": "See {IERC721-approve}."
      },
      "balanceOf(address)": {
        "details": "See {IERC721-balanceOf}."
      },
      "constructor": {
        "params": {
          "collectionSize_": "NFT collection size",
          "maxBatchSize_": "Max size for ERC721A batch mint."
        }
      },
      "getApproved(uint256)": {
        "details": "See {IERC721-getApproved}."
      },
      "isApprovedForAll(address,address)": {
        "details": "See {IERC721-isApprovedForAll}."
      },
      "name()": {
        "details": "See {IERC721Metadata-name}."
      },
      "owner()": {
        "details": "Returns the address of the current owner."
      },
      "ownerOf(uint256)": {
        "details": "See {IERC721-ownerOf}."
      },
      "renounceOwnership()": {
        "details": "Leaves the contract without owner. It will not be possible to call `onlyOwner` functions anymore. Can only be called by the current owner. NOTE: Renouncing ownership will leave the contract without an owner, thereby removing any functionality that is only available to the owner."
      },
      "safeTransferFrom(address,address,uint256)": {
        "details": "See {IERC721-safeTransferFrom}."
      },
      "safeTransferFrom(address,address,uint256,bytes)": {
        "details": "See {IERC721-safeTransferFrom}."
      },
      "setApprovalForAll(address,bool)": {
        "details": "See {IERC721-setApprovalForAll}."
      },
      "supportsInterface(bytes4)": {
        "details": "See {IERC165-supportsInterface}."
      },
      "symbol()": {
        "details": "See {IERC721Metadata-symbol}."
      },
      "tokenByIndex(uint256)": {
        "details": "See {IERC721Enumerable-tokenByIndex}."
      },
      "tokenOfOwnerByIndex(address,uint256)": {
        "details": "See {IERC721Enumerable-tokenOfOwnerByIndex}. This read function is O(collectionSize). If calling from a separate contract, be sure to test gas first. It may also degrade with extremely large collection sizes (e.g >> 10000), test for your use case."
      },
      "tokenURI(uint256)": {
        "details": "See {IERC721Metadata-tokenURI}."
      },
      "totalSupply()": {
        "details": "See {IERC721Enumerable-totalSupply}."
      },
      "transferFrom(address,address,uint256)": {
        "details": "See {IERC721-transferFrom}."
      },
      "transferOwnership(address)": {
        "details": "Transfers ownership of the contract to a new account (`newOwner`). Can only be called by the current owner."
      }
    },
    "version": 1
  },
  "userdoc": {
    "kind": "user",
    "methods": {},
    "version": 1
  },
  "storageLayout": {
    "storage": [
      {
        "astId": 7,
        "contract": "contracts/DireLej.sol:DireLej",
        "label": "_owner",
        "offset": 0,
        "slot": "0",
        "type": "t_address"
      },
      {
        "astId": 1937,
        "contract": "contracts/DireLej.sol:DireLej",
        "label": "currentIndex",
        "offset": 0,
        "slot": "1",
        "type": "t_uint256"
      },
      {
        "astId": 1943,
        "contract": "contracts/DireLej.sol:DireLej",
        "label": "_name",
        "offset": 0,
        "slot": "2",
        "type": "t_string_storage"
      },
      {
        "astId": 1945,
        "contract": "contracts/DireLej.sol:DireLej",
        "label": "_symbol",
        "offset": 0,
        "slot": "3",
        "type": "t_string_storage"
      },
      {
        "astId": 1950,
        "contract": "contracts/DireLej.sol:DireLej",
        "label": "_ownerships",
        "offset": 0,
        "slot": "4",
        "type": "t_mapping(t_uint256,t_struct(TokenOwnership)1929_storage)"
      },
      {
        "astId": 1955,
        "contract": "contracts/DireLej.sol:DireLej",
        "label": "_addressData",
        "offset": 0,
        "slot": "5",
        "type": "t_mapping(t_address,t_struct(AddressData)1934_storage)"
      },
      {
        "astId": 1959,
        "contract": "contracts/DireLej.sol:DireLej",
        "label": "_tokenApprovals",
        "offset": 0,
        "slot": "6",
        "type": "t_mapping(t_uint256,t_address)"
      },
      {
        "astId": 1965,
        "contract": "contracts/DireLej.sol:DireLej",
        "label": "_operatorApprovals",
        "offset": 0,
        "slot": "7",
        "type": "t_mapping(t_address,t_mapping(t_address,t_bool))"
      },
      {
        "astId": 2908,
        "contract": "contracts/DireLej.sol:DireLej",
        "label": "nextOwnerToExplicitlySet",
        "offset": 0,
        "slot": "8",
        "type": "t_uint256"
      },
      {
        "astId": 115,
        "contract": "contracts/DireLej.sol:DireLej",
        "label": "_status",
        "offset": 0,
        "slot": "9",
        "type": "t_uint256"
      },
      {
        "astId": 1319,
        "contract": "contracts/DireLej.sol:DireLej",
        "label": "maxAmountPerWallet",
        "offset": 0,
        "slot": "10",
        "type": "t_uint256"
      },
      {
        "astId": 1322,
        "contract": "contracts/DireLej.sol:DireLej",
        "label": "publicSalePrice",
        "offset": 0,
        "slot": "11",
        "type": "t_uint256"
      },
      {
        "astId": 1325,
        "contract": "contracts/DireLej.sol:DireLej",
        "label": "presalePrice",
        "offset": 0,
        "slot": "12",
        "type": "t_uint256"
      },
      {
        "astId": 1327,
        "contract": "contracts/DireLej.sol:DireLej",
        "label": "preSaleSigner",
        "offset": 0,
        "slot": "13",
        "type": "t_address"
      },
      {
        "astId": 1329,
        "contract": "contracts/DireLej.sol:DireLej",
        "label": "_baseTokenURI",
        "offset": 0,
        "slot": "14",
        "type": "t_string_storage"
      },
      {
        "astId": 1331,
        "contract": "contracts/DireLej.sol:DireLej",
        "label": "_placeHolderURI",
        "offset": 0,
        "slot": "15",
        "type": "t_string_storage"
      },
      {
        "astId": 1334,
        "contract": "contracts/DireLej.sol:DireLej",
        "label": "reveal",
        "offset": 0,
        "slot": "16",
        "type": "t_bool"
      },
      {
        "astId": 1336,
        "contract": "contracts/DireLej.sol:DireLej",
        "label": "currentSaleAmount",
        "offset": 0,
        "slot": "17",
        "type": "t_uint256"
      },
      {
        "astId": 1345,
        "contract": "contracts/DireLej.sol:DireLej",
        "label": "currentSalePhase",
        "offset": 0,
        "slot": "18",
        "type": "t_enum(SalePhase)1340"
      }
    ],
    "types": {
      "t_address": {
        "encoding": "inplace",
        "label": "address",
        "numberOfBytes": "20"
      },
      "t_bool": {
        "encoding": "inplace",
        "label": "bool",
        "numberOfBytes": "1"
      },
      "t_enum(SalePhase)1340": {
        "encoding": "inplace",
        "label": "enum DireLej.SalePhase",
        "numberOfBytes": "1"
      },
      "t_mapping(t_address,t_bool)": {
        "encoding": "mapping",
        "key": "t_address",
        "label": "mapping(address => bool)",
        "numberOfBytes": "32",
        "value": "t_bool"
      },
      "t_mapping(t_address,t_mapping(t_address,t_bool))": {
        "encoding": "mapping",
        "key": "t_address",
        "label": "mapping(address => mapping(address => bool))",
        "numberOfBytes": "32",
        "value": "t_mapping(t_address,t_bool)"
      },
      "t_mapping(t_address,t_struct(AddressData)1934_storage)": {
        "encoding": "mapping",
        "key": "t_address",
        "label": "mapping(address => struct ERC721A.AddressData)",
        "numberOfBytes": "32",
        "value": "t_struct(AddressData)1934_storage"
      },
      "t_mapping(t_uint256,t_address)": {
        "encoding": "mapping",
        "key": "t_uint256",
        "label": "mapping(uint256 => address)",
        "numberOfBytes": "32",
        "value": "t_address"
      },
      "t_mapping(t_uint256,t_struct(TokenOwnership)1929_storage)": {
        "encoding": "mapping",
        "key": "t_uint256",
        "label": "mapping(uint256 => struct ERC721A.TokenOwnership)",
        "numberOfBytes": "32",
        "value": "t_struct(TokenOwnership)1929_storage"
      },
      "t_string_storage": {
        "encoding": "bytes",
        "label": "string",
        "numberOfBytes": "32"
      },
      "t_struct(AddressData)1934_storage": {
        "encoding": "inplace",
        "label": "struct ERC721A.AddressData",
        "members": [
          {
            "astId": 1931,
            "contract": "contracts/DireLej.sol:DireLej",
            "label": "balance",
            "offset": 0,
            "slot": "0",
            "type": "t_uint128"
          },
          {
            "astId": 1933,
            "contract": "contracts/DireLej.sol:DireLej",
            "label": "numberMinted",
            "offset": 16,
            "slot": "0",
            "type": "t_uint128"
          }
        ],
        "numberOfBytes": "32"
      },
      "t_struct(TokenOwnership)1929_storage": {
        "encoding": "inplace",
        "label": "struct ERC721A.TokenOwnership",
        "members": [
          {
            "astId": 1926,
            "contract": "contracts/DireLej.sol:DireLej",
            "label": "addr",
            "offset": 0,
            "slot": "0",
            "type": "t_address"
          },
          {
            "astId": 1928,
            "contract": "contracts/DireLej.sol:DireLej",
            "label": "startTimestamp",
            "offset": 20,
            "slot": "0",
            "type": "t_uint64"
          }
        ],
        "numberOfBytes": "32"
      },
      "t_uint128": {
        "encoding": "inplace",
        "label": "uint128",
        "numberOfBytes": "16"
      },
      "t_uint256": {
        "encoding": "inplace",
        "label": "uint256",
        "numberOfBytes": "32"
      },
      "t_uint64": {
        "encoding": "inplace",
        "label": "uint64",
        "numberOfBytes": "8"
      }
    }
  }
}